:020000040808EA
:1000000000000808B0390808000006000A000501D1
:0800100004027E05000000005F
:04001800FC320808A6
:1000200009480A4908B5884205D0094A824202D0E7
:10003000121A03F0F9F80748074A0021121A03F0D0
:10004000FEF8064808BD00BF00000020F43808088C
:100050009400002094000020BC060020BC06002074
:1000600070B501F091FF074B074C1E46E41AA40837
:100070000025A54204D056F8253098470135F8E709
:1000800070BD00BFA8380808E438080800F0DAB8E6
:1000900008B500F01BFABDE8084001F037BF00F0DA
:1000A000E9BD00F0EFBD0078B0FA80F0400970477C
:1000B0000123037070470368C9B29B681847002288
:1000C0004270704708B5017002F002F801F004FBBD
:1000D000012008BD70B506460C46154601F0F8FF34
:1000E000317801F010FB01F0F3FF210AFFF7E3FF85
:1000F00001F0EEFFE1B2FFF7DEFF01F0E9FF036878
:1001000029469B68984701F0E3FFBDE8704001F085
:1001100005BB38B504460D4601F0DAFF217801F041
:10012000F2FA01F0D5FF290AFFF7C5FF01F0D0FF71
:10013000E9B2FFF7C0FF01F0CBFF01F0EFFA01F0E9
:10014000C7FF0122217801F0D6FA01F0C1FF036850
:100150005B699847C0B238BD00F090BB08B505494F
:1001600001F0E7FC20B10420012101F06EFF012025
:1001700008BD00BFE733080837B505469DF81840AD
:1001800023438DF800303C2301F076F8284603B075
:1001900030BD000008B500F051FB034B1860BDE80E
:1001A000084000F0E7BC00BFB005002081B2014864
:1001B000FFF7AFBFAC0000200A4681B20148FFF74D
:1001C00089BF00BFAC00002010B501F0FFFD184949
:1001D00001F0ADFB042400212046FFF7EDFFB4F54C
:1001E000005F03D101F0F2FD124914E0B4F5804F35
:1001F00003D101F0EBFD10490DE0B4F5C04F03D180
:1002000001F0E4FD0D4906E047F6FF739C4204D17E
:1002100001F0DCFD0A4901F08AFB0134B4F5004F1E
:10022000D9D107210020BDE81040FFF7C5BF00BFAE
:1002300010330808213308082A3308083333080824
:100240003C330808F8B50021052001F0EDFE00213F
:10025000112001F0E9FE0121072001F0E5FE012156
:10026000062001F0E1FE0121062001F0EEFE002152
:10027000062001F0EAFE0121042001F0D5FE002352
:1002800004222149214800F065FC00230222204974
:10029000204800F05FFC204A2049214800F0C5FEBC
:1002A000002304221F49204800F054FC1F4A204923
:1002B0001B4800F0BAFE00F06DFC0446E0B900F007
:1002C00061FC204600F0D2FA04461A4E00250027B1
:1002D000002000F0CBFA001B61EB05018F4208BF44
:1002E000864205D300F056FC10B900F043FCEFE75E
:1002F00000F050FCFFF74EFF0F4801F08BF902F0C1
:100300005FFF034B1860F8BDC93508084133080882
:10031000A000002049330808543308085D0108088C
:10032000FF0F0808AF0000205E3308086533080897
:10033000390408088F5F0100A400002000000000BD
:1003400008B50A2001F0ADFE02F0ECF914A3D3E9E0
:10035000002302F04DFA02F085FC4FF0665102F0E6
:10036000DFFD02F0F1F900220F4B02F08DF80022C0
:100370000E4B02F03DFA02F04DFC02F0D3F90022E0
:100380000B4B02F035FA00220A4B02F05BFB002215
:10039000094B02F07BF802F03DFC084B186008BDE9
:1003A0006666666666660A400000E03F00005940E7
:1003B000000022400000144000004040980000204F
:1003C00008B5064B01210620197001F03EFEBDE87C
:1003D00008400021062001F038BE00BF9C0000202C
:1003E00030B58FB0104904A800F0E2FC04A800F07A
:1003F00032FD044604A800F08DFD054604A800F077
:1004000071FD02F0A1F9CDE90201284602F09CF944
:10041000CDE90001054B064A53F824304021054838
:1004200000F040FC0FB030BDF400002004000020BC
:1004300070330808AF00002008B5044901F079FBCB
:1004400010B1FFF7CDFF012008BD00BFE73308085A
:1004500038B5046805467CB16368013B63605BB9ED
:10046000236820469B689847A368013BA3601BB99B
:1004700023682046DB689847284638BD1FB54FF4EF
:100480007A7000F027FC0F4B00221B7802A88DF831
:1004900000200D49FFF770FE03A8FFF7D9FF0121E7
:1004A000072001F0D2FD4FF4FA6000F013FC0021A8
:1004B000072001F0CAFD4FF4FA6000F00BFCFFF7D3
:1004C00069FEECE7AE00002089330808F0B59A4CCD
:1004D00095B0002599492378994A04A88DF80050D1
:1004E000FFF74AFE05A8FFF7B3FF4FF47A7000F05C
:1004F000F1FBFFF74FFE50219248FFF7E3FD58B99B
:100500008DF80000237804A88F4A9049FFF734FE45
:1005100005A8FFF79DFF11E02846FFF747FE0728D3
:100520000CD023788A4A894904A88DF80050FFF737
:1005300023FE05A8FFF78CFFFFF746FE4FF47A7005
:1005400000F0C8FBFFF726FE0020FFF72FFE002279
:1005500007288DF80020237814BF7E4A7E4A7B4905
:1005600004A8FFF709FE05A8FFF772FF4FF47A70A1
:1005700000F0B0FBFFF70EFEFFF7E2FE002503469A
:10058000764A402104A800F08DFB237804AA744920
:1005900002A88DF80050FFF7EFFD03A8FFF758FF02
:1005A0004FF47A7000F096FBFFF7F4FD23786D4A64
:1005B0006D4902A88DF80050FFF7DEFD03A8FFF794
:1005C00047FF4FF47A7000F085FB052001F056FDDF
:1005D00010B1FFF7DFFDF8E72378644A62498DF830
:1005E000000002A8FFF7C8FD03A8FFF731FF4FF492
:1005F0007A7000F06FFBFFF7CDFD5D4F5D4E5E4DF5
:1006000000F01CF933683A68134498421CD35B48E5
:1006100001F000F802F0D4FD594A03462860402159
:1006200004A800F03FFB0022237856498DF80020F3
:1006300002A804AAFFF7A0FD03A8FFF709FFFFF730
:10064000A9FD00F0FBF830602B68412BD8DD0027B6
:1006500023784D4A4D4902A88DF80070FFF78CFDB4
:1006600003A8FFF7F5FE01F0B1FA494D0646FFF782
:10067000A7FE2F7000F08EFA58B12F4B02A81B78FE
:10068000444A8DF800704449FFF776FD03A8FFF750
:10069000DFFE4FF47A7000F01DFBFFF77BFD2B7837
:1006A00033B9FFF777FD4FF47A7000F013FBF6E7EC
:1006B00001F08CFA3C23801B90FBF3F3374A402176
:1006C00004A800F0EFFA00F065FA58B100228DF8A6
:1006D000002002A8237804AA3149FFF74DFD03A8A2
:1006E000FFF7B6FE4FF47A70002500F0F3FAFFF73B
:1006F00051FD23782B4A2C4902A88DF80050FFF7B2
:100700003BFD03A8FFF7A4FE4FF47A7000F0E2FA75
:10071000FFF740FD0121042001F097FC2378234AD4
:10072000214902A88DF80050FFF726FD03A8FFF726
:100730008FFEFFF7A3FE00BFAE000020C033080805
:10074000AD330808AC000020CB330808E1330808BB
:10075000E9330808033408081C3408082D34080855
:1007600040340808483408085A3408086234080835
:1007700000000020F0000020A0000020A4000020C5
:100780007D340808973408089F340808BA340808EC
:100790009C000020C2340808E7340808F734080831
:1007A00015350808263508084A350808523508085E
:1007B0000C4B10B501241C7000F060F80A48FFF7DC
:1007C0007EFC2046094C002100F090F900212046D3
:1007D00000F0E0FE2046BDE81040054A054901F062
:1007E000FDBC00BFAE000020AC000020A400002033
:1007F00094000020B315080800F040B808B5024B7B
:100800001B68DB6B019308BD2000060808B5024B8E
:100810001B685B6C019308BD2000060808B5024BFD
:100820001B681B6B019308BDD001040808B5024B7F
:100830001B685B68019308BD9C01040808B5024B66
:100840001B685B69019308BD9C01040808B5024B55
:100850001B68DB69019308BD9C01040808B5024BC5
:100860001B689B6D019308BD9C01040808B5024BF1
:100870001B68DB6D019308BD9C01040808B5024BA1
:100880001B681B68019308BDB001040808B5024B42
:100890001B685B68019308BDB001040808B5024BF2
:1008A0001B689B68019308BDB001040808B5024BA2
:1008B0001B68DB68019308BDB001040808B5024B52
:1008C0001B681B69019308BDB001040808B5024B01
:1008D0001B685B69019308BDB001040808B5024BB1
:1008E0001B681B6B019308BDB001040808B5024BDF
:1008F0001B68DB68019308BDAC01040808B5024B16
:100900001B685B69019308BDAC01040808B5024B84
:100910001B689B69019308BDAC01040808B5024B34
:100920001B68DB69019308BDAC01040808B5024BE4
:100930001B681B6A019308BDAC01040808B5024B93
:100940001B685B6A019308BDAC01040808B5024B43
:100950001B689B6A019308BDAC01040808B5024BF3
:100960001B68DB6A019308BDAC01040808B5024BA3
:100970001B681B6B019308BDAC01040808B5024B52
:100980001B685B6B019308BDAC01040808B5024B02
:100990001B681B6C019308BDAC01040808B5024B31
:1009A0001B689B6C019308BDAC01040808B5024BA1
:1009B0001B68DB6C019308BDAC01040808B5024B51
:1009C0001B68DB69019308BDB401040808B5024B3C
:1009D0001B681B6A019308BDB401040808B5024BEB
:1009E0001B689B69019308BDC401040808B5024B4C
:1009F0001B685B6A019308BDC401040808B5024B7B
:100A00001B689B6A019308BDC401040808B5024B2A
:100A10001B68DB6A019308BDC401040808B5024BDA
:100A20001B681B6B019308BDC401040808B5024B89
:100A30001B685B6B019308BDC401040808B5024B39
:100A40001B689B6B019308BDC401040808B5024BE9
:100A50001B681B6C019308BDC401040808B5024B58
:100A60001B681B68019308BD1C00060808B5024BF3
:100A70001B681B69019308BD1C00060808B5024BE2
:100A80001B685B69019308BD1C00060808B5024B92
:100A90001B689B69019308BD1C00060808B5024B42
:100AA0001B68DB69019308BD1C00060808B5024BF2
:100AB0001B681B6A019308BD1C00060808B5024BA1
:100AC0001B681B68019308BDA401040808B5024B0C
:100AD0001B685B68019308BDA401040808B5024BBC
:100AE0001B685B69019308BDA401040808B5024BAB
:100AF0001B68DB6A019308BDA401040808B5024B1A
:100B00001B68DB6C019308BDA401040808B5024B07
:100B10001B685B6D019308BDA401040808B5024B76
:100B20001B689B6D019308BDA401040808B5034B25
:100B30001B68D3F89030019308BD0000A40104089D
:100B400008B5034B1B68D3F89C30019308BD000027
:100B5000A401040808B5024B1B681B68019308BD7B
:100B6000CC01040808B5024B1B685B68019308BD03
:100B7000CC01040808B5024B1B689B68019308BDB3
:100B8000CC01040808B5024B1B68DB68019308BD63
:100B9000CC01040808B5024B1B685B69019308BDD2
:100BA000CC01040808B5024B1B681B6A019308BD01
:100BB000CC01040808B5024B1B681B6B019308BDF0
:100BC000CC01040808B5024B1B68DB6B019308BD20
:100BD000CC01040808B5024B1B685B68019308BD93
:100BE000C801040808B5024B1B689B68019308BD47
:100BF000C801040808B5024B1B68DB68019308BDF7
:100C0000C801040808B5024B1B681B69019308BDA5
:100C1000C801040808B5024B1B685B69019308BD55
:100C2000C801040808B5024B1B689B69019308BD05
:100C3000C801040808B5024B1B68DB69019308BDB5
:100C4000C801040808B5024B1B681B6A019308BD64
:100C5000C801040808B5024B1B681B6B019308BD53
:100C6000C801040808B5024B1B685B6B019308BD03
:100C7000C801040808B5024B1B681B68019308BD36
:100C8000A001040808B5024B1B685B68019308BD0E
:100C9000A001040808B5024B1B689B68019308BDBE
:100CA000A001040808B5024B1B68DB69019308BD6D
:100CB000A001040808B5024B1B68DB6A019308BD5C
:100CC000A001040808B5024B1B681B6B019308BD0B
:100CD000A00104080021FFF701BF10B58368044696
:100CE0000BB901F082FAC3689847A3681BB10322CD
:100CF0002146204698472046BDE81040102101F0CB
:100D000072BA002211464068FFF77CBF2DE9FF410F
:100D1000002604AC054610468846174644F8046D84
:100D200002F0E3FA009681B2D8F804302246384641
:100D3000FFF764FD20B13146284600F039FD03E09D
:100D40002146284600F02CFD284604B0BDE8F0817D
:100D5000002211464068FFF775BF00221146406827
:100D6000FFF780BF00224068FFF774BF002281F0C8
:100D700001014068FFF75EBF00231A46194640682C
:100D8000FFF750BF00231A4619464068FFF742BFDD
:100D9000002211464068FFF725BF0022022140686B
:100DA000FFF728BF00231A464068FFF713BF000073
:100DB000F0B50F461A4B002503601826283389B07A
:100DC00043608560C560324629460446103002F013
:100DD00036FA2A4629467868FFF714FF08B9A0605A
:100DE0001BE02946324602A80095019502F027FA39
:100DF00002A96846ADF80860FFF708FD10B10123AD
:100E0000A3600AE0009B019AA360E2600BB9022391
:100E1000A36002A9204600F095F8204609B0F0BD75
:100E20000C36080838B5084C28252A4600212046EB
:100E300002F005FA4FF0FF336360044B04225A605E
:100E4000034A25801A6038BDFC000020F400002011
:100E5000D83508087047007D7047000008B5037D4D
:100E60001BB18069B0F1004F01D1002008BD02F034
:100E700003F8024902F008F908BD00BF0000C842AB
:100E800008B5037D1BB1006AB0F1004F01D100200D
:100E900008BD01F0F1FF024902F0F6F808BD00BFFD
:100EA0000000C84270B50D4606460A2281682846F1
:100EB00000F095FD2C210446284600F029FD0A2269
:100EC0000444F168284600F08AFD204470BDA0F17A
:100ED0000400FFF7E7BF10B50446282101F083F9AD
:100EE000204610BD08B5037D5BB1406A002808DBD1
:100EF00001F0C2FF044902F0C7F8044902F010F8FB
:100F000008BD034808BD00BF00FF7F470000C8427E
:100F1000000080BF08B5037D5BB1C069002808DB15
:100F200001F0AAFF044902F0AFF8044901F0F8FF0C
:100F300008BD034808BD00BF00FF7F470000C8424E
:100F4000000080BF30B50D4600F110040FCD0FC476
:100F500095E8030084E80300012030BD70470020BD
:100F6000704710B50446102101F03DF9204610BD30
:100F700008B508B1FFF7F5FF08BD10B58368044652
:100F800013B1032201469847204610BD002202609B
:100F90004FF69C72828010B5B1F9044084808A803B
:100FA00002680C6804600A6010BD10B50446006851
:100FB000FFF768FE204610BD38B5C468F4B1237849
:100FC000022B03D104F10C00FFF7EFFF656835B188
:100FD0002846FFF7D2FF1021284601F004F9A56842
:100FE00035B12846FFF7C9FF1021284601F0FBF86C
:100FF0002046BDE83840142101F0F5B838BD10B5E1
:1010000088B00446684600F067FD694604A800F011
:1010100085FD04A8A047044604A800F016FD684614
:1010200000F013FD204608B010BDF0B507460E468F
:10103000154685B0102422460021684602F0FFF8CC
:10104000002269461046ADF80040029703960195CC
:10105000FFF788FD05B0F0BD13B5044691E8050023
:1010600000234B600B602060626001A80193009335
:10107000FFF7EEF9204602B010BD0B68036013B114
:101080005A6801325A607047F7B50C4606460F465B
:1010900054F8043B02AD45F8083D214601A8FFF78E
:1010A000ECFF29463046FFF7D7FF01A8FFF7D0F93C
:1010B0002046FFF7CDF93846082101F094F8304674
:1010C00003B0F0BD13B50B46044603C88DE803001A
:1010D00093E8030084E803009DE8030083E803002D
:1010E00002B010BD38B500230446036010200D4641
:1010F000FEF7D5FF28B1012343608360024BC56032
:1011000003602060204638BD40360808826810B56C
:101110000AB901F06AF8C368BDE81040184708B57D
:10112000006800F11001FFF7F1FF08BD826810B5FB
:101130000AB901F05AF8C368BDE81040184708B56D
:10114000006800F11001FFF7F1FF08BD38B500237A
:1011500083608B6804460D462BB102229847EB68EA
:10116000E360AB68A360204638BD0000F0B589B0ED
:1011700004686846FFF70AFF4FF0020200238DF86B
:101180000830D4E84F3F002B03D1C4E8412F002999
:10119000F7D102D08DF8083063E014F10C0503D0CC
:1011A00069462846FFF7F2FEBFF35F8F01236370A5
:1011B000BFF35F8F04F10803002053E8006F43E89A
:1011C0000002002AF9D1BFF35F8F002E49D0FFF74C
:1011D00095FC20B129463046FFF798FF3AE03146AA
:1011E00002A8FFF7B3FFE068B4F9105008B102F0AD
:1011F00061F806901020ADF81C50FEF750FF054630
:10120000E8B1002787601820FEF749FF044688B13F
:101210000146876002A8FFF755FF049BA268A36000
:10122000059B0492E26806A9E36004F110000592B0
:10123000FFF7ACFE0D4B2C60EB600D4BAB6006A8CE
:10124000FFF7B3FE02A8FFF798FE002229460948DF
:10125000FFF75CFC3046FFF790FE1021304600F0AF
:10126000C2FF6846FFF7A1FE09B0F0BD1F110808D4
:1012700095130808DB0C08082DE9F04F8BB00646E3
:101280000F46904699469DF850A0FFF783FC07ADA6
:10129000834630BB4FF62E73059005A92846ADF85E
:1012A0001830FFF773FE1420FEF7F9FE044658B11C
:1012B0000223037001234370C0F804B0C0F808B0E3
:1012C00029460C30FFF762FE3046214640F8044BB9
:1012D000FFF708FF2846FFF768FE05A8FFF765FE41
:1012E00052E000240C2314206C60AC600793FEF7DE
:1012F000D6FE014618B1047044704460846004A8AE
:101300000391FFF7EFFE224B08200893FEF7C7FE7C
:10131000044628B1039B04A940F8043BFFF7ADFE47
:1013200000955FFA8AF34A46414638460994FFF72A
:1013300039FC20B9039B5B7803F0FF0283B1039B68
:1013400004A906A80593FFF798FE05A93046FFF704
:1013500083FE06A8FFF77CF804A8FFF779F813E0EE
:101360004FF69C7305A903A80592ADF81830FFF756
:10137000FDFE05A8FFF719FE05A80999FFF784FEF1
:1013800006A8FFF765F8DAE730460BB0BDE8F08F46
:1013900005150808022AF8B5044606D0032A17D016
:1013A000012A22D10B6803601FE018200E68FEF7A7
:1013B00076FE054650B13146FFF7C8FE3069B6F9F2
:1013C000147008B101F076FF2861AF8225600CE04F
:1013D000046854B104F11000FFF7E7FD2046FFF761
:1013E000CCFD1821204600F0FEFE0020F8BD38B5E7
:1013F000002383608B6804460D462BB10222984778
:10140000EB68E360AB68A360204638BD022A70B584
:10141000044606D0032A11D0012A18D10B680360B4
:1014200015E014200E68FEF73AFE054620B131465D
:10143000FFF7DDFF337C2B74256008E0046834B1CE
:101440002046FFF79AFD1421204600F0CCFE002034
:1014500070BD0000F0B50C46BFF35F8F87B000236E
:1014600050E8006F40E80032002AF9D1BFF35F8FE7
:10147000002E3FD01846FFF741FB074620B121461A
:101480003046FFF753FE2EE0314601A8FFF7AFFFCD
:10149000237810208DF81430FEF701FE0546D0B1F8
:1014A00087601420FEF7FBFD044678B18760014693
:1014B00001A8FFF707FE039BA268A360049B0392A9
:1014C000E268E3609DF81430049223740A4B2C60A8
:1014D000EB600A4BAB6001A8FFF74FFD00222946E5
:1014E0000748FFF713FB3046FFF747FD1021304652
:1014F00000F079FE07B0F0BD3F1108080D14080890
:10150000DB0C080830B5044685B00D466846114628
:10151000FFF7BAFD7CB124B228460DB101F0CAFE36
:10152000029002A96846ADF80C40FFF71FFE02A822
:10153000FFF73BFD1DE04FF0010200988DF80840D9
:10154000D0E84F3FA34203D1C0E8412F0029F7D193
:1015500002D08DF808300CE010F10C014FF00103BF
:1015600018BF0373BFF35F8F043000F8033CFFF72D
:1015700071FF01A8FEF76CFF05B030BD006800F0F8
:10158000D4B810B50446016002710AB1FFF7F6FF46
:10159000204610BD38B504460D4600F0B9FD2A4678
:1015A00001462046FFF7EDFF204638BD006800F0F9
:1015B000C5B810B5037904460BB1FFF7F7FF204615
:1015C00010BDF8B504460F4616461D46FFF7D6FF78
:1015D0002068362100F09BF82068394603689B6834
:1015E00098470121206800F095F802223621012356
:1015F000206800F083F8206803685B6998473070C2
:10160000206803685B69984728702046BDE8F84069
:10161000FFF7CCBF13B5002202AB03F8012D8DF804
:10162000062004210DF10602FFF7CBFF9DF807000D
:1016300001F078F80022084B01F0DAF801F012FB13
:1016400004469DF8060001F017FC0146204601F013
:101650005FFB02B010BD00BF0000703F7047F8B5DF
:10166000064615460C468F18BC4206D0336814F85F
:10167000011B9B6830469847F6E72846F8BD0022D4
:10168000007CFFF753B90021007CFFF757B9002118
:10169000007CFFF75BB90021007CFFF75FB90021F8
:1016A000007CFFF763B910B50446142100F09BFDE0
:1016B000204610BD10B5044608464FF47A73A36067
:1016C000044B0021207461602360FFF75FF920461E
:1016D00010BD00BF5C36080800231A461946007C7E
:1016E000FFF704B913B50024007C0094FFF706F956
:1016F000C0B202B010BD0123FFF7F4BFDBB2D2B21B
:10170000C9B2FFF7EFBF0022007CFFF7FFB8C9B2F4
:10171000FFF7F9BF0022007CFFF700B90121FFF7B6
:10172000F9BF0021007CFFF729B908B50021007C32
:10173000FFF734F9B0FA80F0400908BD08B5002180
:10174000007CFFF733F9B0FA80F0400908BD70471C
:1017500010B50446082100F046FD204610BDF8B53E
:101760000F4600F10806051D002416F8011D0A2287
:10177000384600F010F9AE42044407D0002CF4D0F3
:101780002E21384600F0C4F80444EEE72046F8BDA8
:10179000024A026000224260704700BF8436080897
:1017A000024A02600A684260704700BF8436080837
:1017B000014A4160026070478436080810B59DF800
:1017C000084044EA032343EA024242EA01614160DD
:1017D00010BD000037B5044D05609DF81850009508
:1017E000FFF7ECFF03B030BD84360808014A024B16
:1017F0001A607047063708082401002000231A46A3
:101800004068FFF7E7B9002202214068FFF7F2B90C
:10181000002211464068FFF7E5B9002211464068F2
:10182000FFF7F0B900231A4619464068FFF7F2B9EE
:1018300000231A4619464068FFF7F4B9002281F0E8
:1018400001014068FFF7F6B900224068FFF702BACD
:10185000002211464068FFF705BA00221146406891
:10186000FFF7F0B9F0B5174687B0054604A8FFF7B3
:101870008FFF002606AC384644F80C6D01F035FDAC
:101880000A4B009681B25B6822463846FEF7B6FFE7
:1018900020B131462846FFF78BFF03E0214628465A
:1018A000FFF77EFF284607B0F0BD00BFF400002020
:1018B000024B034A1A6000225A6070472801002038
:1018C0007C370808F8B506460D468F180024BD423F
:1018D0000CD0336815F8011B9B68304698470028E8
:1018E00001DB0444F3E7002C08BF04462046F8BDA2
:1018F00070B505460C46084649B101F0F6FC2B6868
:10190000024621462846BDE87040DB68184770BD96
:1019100003689B68184738B50D210546FFF7F8FFA7
:101920000A2104462846FFF7F3FF204438BD38B5A6
:101930000546FFF7DDFF04462846FFF7ECFF20448D
:1019400038BD012A98BF0A2230B50B468BB0002162
:101950008DF824100DF12304B3FBF2F505FB1233CF
:10196000DBB2092B94BF30333733DBB2214604F8A6
:1019700001392B46002DEFD1FFF7BAFF0BB030BD78
:1019800010B422B90368C9B29B6810BC1847D2B220
:1019900010BCFFF7D6BFFFF7F3BF2DE9F0410746B4
:1019A0000E4615462AB9BDE8F0410368C9B29B68E6
:1019B00018470A2A02D1002901DA04E0D2B2BDE8B0
:1019C000F041FFF7BEBF2D21FFF7A2FF2A460446D4
:1019D00071423846FFF7B5FF2044BDE8F081FFF7BC
:1019E000DCBF10B50446FFF7C8FA204610BD000062
:1019F000034800238360034A034900F0EFBB00BFA4
:101A00003001002094000020E3190808704710B549
:101A10000446102100F0E7FB204610BD70B50446D7
:101A20000E46074B0025036040F80C5FFEF7F6FEFC
:101A300030462671FEF7C2FFA560204670BD00BF8C
:101A4000B03708080079FEF7C1BF10B5044600683A
:101A5000FFF718F9204610BD10B50446006808B11C
:101A6000FFF710F900232360A360636010BD38B551
:101A700004460D4600680131FFF70CF910B184E807
:101A80002100012038BD10B50368044613B1436836
:101A90008B4207D22046FFF7EAFF20B1A3680BB9BB
:101AA00022681370012010BD70B50E461146044621
:101AB0001546FFF7E8FF18B92046FFF7CDFF09E00C
:101AC0002A463146A560206801F0AEFB2268A36873
:101AD0000021D154204670BD38B500230446036070
:101AE0004360836003730D4639B1084601F0FDFB86
:101AF000294602462046FFF7D7FF204638BD8842D8
:101B000010B50B46044607D0096819B19A68FFF76B
:101B1000CBFF01E0FFF7A0FF204610BD10B5044643
:101B200000230360436083600373FFF7E8FF2046F0
:101B300010BD08B582680B4612B919B9012008BD5D
:101B400011B90368187802E0006801F0A9FBB0FA47
:101B500080F0400908BD00004FF6FF72034B0020E3
:101B6000187058809A80FEF7B1BF00BF4001002076
:101B700008B50020FFF71EF828B1FFF70BF880F03A
:101B80000100C0B208BD012008BD10B50020FEF75D
:101B900065FE044668B9FEF791FF01280BD1204687
:101BA000FEF7BCFF38B9FFF7E3FF30B9FEF7E2FFFD
:101BB000F9E7012010BD002010BDFFF7D9FF00207C
:101BC000FEF74CFE003018BF012010BD08B5FFF72E
:101BD000DCFFBDE80840FEF739BE0000024B1A6882
:101BE000024B1A60704700BF2C0000204801002003
:101BF00070474174704708B5007CFEF727FF20EA64
:101C0000E07008BD08B5007CFEF7F8FE20EAE07041
:101C100008BD08B5007CFEF701FF30EA200028BFB0
:101C20004FF0FF3008BD08B5007CFEF7EFFE30EA4C
:101C3000200028BF4FF0FF3008BD007CFEF7F6BE45
:101C400010B50446142100F0CEFA204610BD70B540
:101C5000457C04460E4625B9007CFEF7F7FE0028B9
:101C600005DD3146207CBDE87040FEF7BFBE28464A
:101C700070BD000010B5044608461146002262609F
:101C80004FF47A72A260054A2074226001226274C5
:101C90001A46FEF7A3FE204610BD00BFEC37080829
:101CA000007CFEF7CBBE000038B50C4D296811F062
:101CB000010411D12846FEF7F6F968B1084A214619
:101CC000084B0948FFF7D6FF2846FEF7F1F9074A07
:101CD0000749054800F082FA034838BDE4010020B6
:101CE000E8010020600100204C0100209400002049
:101CF000F11B080841747047704708B50021007C4B
:101D0000FEF7C4FE30EA200028BF4FF0FF3008BDC8
:101D100008B50121007CFEF7B9FE30EA200028BF9B
:101D20004FF0FF3008BD08B5007CFEF7A7FE20EAA3
:101D3000E07008BD08B5007CFEF798FE20EAE07070
:101D400008BD007CFEF7B2BE10B50446142100F0B9
:101D50004AFA204610BD38B50446007C0D46FEF711
:101D60008DFE002801DC607C28B12946207CFEF72E
:101D700095FE20EAE07038BD10B50446002363608C
:101D80004FF47A73A360054B084623600123217446
:101D900063741146FEF762FE204610BD1C38080829
:101DA00010B504461422002101F049FA054B2046E3
:101DB0006360054BE36040F201132381812323829A
:101DC00010BD00BFF10200207002002030B50E4DA2
:101DD00087B001A8FFF7E4FF296811F0010410D1D2
:101DE0002846FEF760F960B101AA21460748FFF7CF
:101DF000C3FF2846FEF75CF9054A0649034800F090
:101E0000EDF9024807B030BD6C020020F403002059
:101E100094000020F91C080810B504461422002183
:101E200001F00DFA054B20466360054BE36040F27C
:101E3000011323818123238210BD00BFA40400204D
:101E40000C04002010B50E4C86B001A8FFF7E4FF8B
:101E50002368DB0710D42046FEF725F960B101AAFC
:101E600001210848FFF788FF2046FEF721F9064ABE
:101E70000649044800F0B2F9024806B010BD00BFA0
:101E8000080400209004002094000020F91C080899
:101E900008B5184B33B1FFF799FF03681B699847E2
:101EA00000281EDC144B33B1FFF7FEFE03681B69EC
:101EB0009847002818DC114B0BB1AFF30080104B92
:101EC0000BB1AFF300800F4B0BB1AFF300800E4BA3
:101ED0007BB1FFF7B7FF03681B699847002806DC52
:101EE00008BDAFF30080DDE7AFF30080E3E7AFF3B9
:101EF000008008BD0000000000000000000000009D
:101F000000000000000000000000000008B5FFF71E
:101F1000BFFFFEF793FC014B186008BDB005002021
:101F20000248034A0349121A01F07EB900400240F8
:101F300004400240F038080807B5002300931A4611
:101F40006FF07701FEF7FCFD03B05DF804FB0000C5
:101F500007B543880A2B08D0502B09D1094B1B68C1
:101F60003BB103B05DF804EB1847FFF7E5FF06E06F
:101F7000002300931A466FF07701FEF7E1FD03B0EE
:101F80005DF804FBA805002038B5104C104D2368FF
:101F9000AB42104B0CBF012200221A7002D0FFF797
:101FA000BFFF2560FEF742FC044601F051F90A4BE1
:101FB00013B12046AFF3008000210748FEF702FE70
:101FC000BDE8384000210548FEF7B0BD00400240A2
:101FD0001E1C279AAC05002000000000511F0808B5
:101FE00010B504460F48FFF72DFD28B1A4F10D03ED
:101FF000022B01D8002010BD00F06AF8FFF791FB1A
:1020000008B1012CF6D9FFF74FFEFFF749FE18B1D2
:10201000A4F11203012BEDD92E2C8CBF002001203E
:1020200010BD00BFEC0500202E2838B504460D4633
:102030000AD8FF2908D0FFF7D3FF28B12946204648
:10204000BDE83840FEF72ABC38BD38B504460D4619
:10205000FEF72CFCFF2810D0062804D84D2323FAC5
:1020600000F0C30709D42046FFF7BAFF28B129467C
:102070002046BDE83840FEF721BC38BD10B5044607
:10208000FEF714FC0438C0B2012808D92046FFF737
:10209000A7FF20B12046BDE81040FEF717BC002086
:1020A00010BD10B5044609289CBF0A34A4B22046CE
:1020B000FFF796FF50B103212046FEF7E7FB032808
:1020C00004D12046BDE81040FEF708BC002010BD3A
:1020D00038B50B4D296811F001040FD12846FDF7E2
:1020E000E2FF58B121460748FFF7E4FA2846FDF71A
:1020F000DFFF054A0549034800F070F8014838BD84
:10210000B4050020CC050020940000205D160808CE
:1021100010B50B4C2368DB070FD42046FDF7C3FF37
:1021200058B102210748FFF7C5FA2046FDF7C0FF66
:10213000054A0649034800F051F8024810BD00BFA7
:10214000E0050020B8050020940000205D16080876
:1021500013B5084C00231A46194600932046FFF792
:1021600039FB2046044A054902B0BDE8104000F0A2
:1021700035B800BFE4050020940000204F17080880
:1021800070B5114E114D124C00213046FFF746FC40
:102190003046104E2A46214600F020F801213046F4
:1021A000FFF73CFC30460C4E2A46214600F016F85C
:1021B00002213046FFF732FC2A4621463046BDE870
:1021C000704000F00BB800BFEC0500209400002028
:1021D0000D1A0808FC0500200C0600200B460146DD
:1021E000184601F013B8FDF75CBF08B5FEF762FDB5
:1021F000244B1A68D0075CBF01221A60224B1A6870
:10220000D1075CBF01221A60204B1A68D2075CBF5D
:1022100001221A601E4B1A68D0075CBF01221A60A7
:102220001C4B1A68D1075CBF01221A601A4B1A684E
:10223000D2075CBF01221A60184B1A68D0075CBF36
:1022400001221A60164B1A68D1075CBF01221A607E
:10225000144B1A68D2075CBF01221A60124B1A682D
:10226000D0075CBF01221A60104B1A68D1075CBF0F
:1022700001221A600E4B1A68D2075CBF01221A6055
:10228000704700BF4806002044060020400600209A
:102290003C060020380600203406002030060020CE
:1022A0002C060020280600202406002020060020FE
:1022B0001C060020184B1A68D1075CBF01221A6067
:1022C000164B1A68D2075CBF01221A60144B1A68B9
:1022D000D0075CBF01221A60124B1A68D1075CBF9D
:1022E00001221A60104B1A68D2075CBF01221A60E3
:1022F0000E4B1A68D0075CBF01221A600C4B1A689B
:10230000D1075CBF01221A600A4B1A68D2075CBF72
:1023100001221A60704700BF680600206406002092
:10232000600600205C0600205806002054060020AD
:10233000500600204C060020184B1A68D1075CBFDD
:1023400001221A60164B1A68D2075CBF01221A607C
:10235000144B1A68D0075CBF01221A60124B1A682E
:10236000D1075CBF01221A60104B1A68D2075CBF0C
:1023700001221A600E4B1A68D0075CBF01221A6056
:102380000C4B1A68D1075CBF01221A600A4B1A680D
:10239000D2075CBF01221A60704700BF8806002088
:1023A00084060020800600207C060020780600209D
:1023B00074060020700600206C060020244B1A686A
:1023C000D0075CBF01221A60224B1A68D1075CBF9C
:1023D00001221A60204B1A68D2075CBF01221A60E2
:1023E0001E4B1A68D0075CBF01221A601C4B1A688A
:1023F000D1075CBF01221A601A4B1A68D2075CBF72
:1024000001221A60184B1A68D0075CBF01221A60BB
:10241000164B1A68D1075CBF01221A60144B1A6868
:10242000D2075CBF01221A60124B1A68D0075CBF4A
:1024300001221A60104B1A68D1075CBF01221A6092
:102440000E4B1A68D2075CBF01221A60704700BFAA
:10245000B8060020B4060020B0060020AC0600201C
:10246000A8060020A4060020A00600209C0600204C
:102470009806002094060020900600208C0600207C
:1024800081F0004102E000BF83F0004330B54FEA25
:1024900041044FEA430594EA050F08BF90EA020F92
:1024A0001FBF54EA000C55EA020C7FEA645C7FEA25
:1024B000655C00F0E2804FEA5454D4EB5555B8BF48
:1024C0006D420CDD2C4480EA020281EA030382EAB9
:1024D000000083EA010180EA020281EA0303362D4B
:1024E00088BF30BD11F0004F4FEA01314FF4801C1E
:1024F0004CEA113102D0404261EB410113F0004F30
:102500004FEA03334CEA133302D0524263EB4303E6
:1025100094EA050F00F0A780A4F10104D5F1200E84
:102520000DDB02FA0EFC22FA05F2801841F10001DF
:1025300003FA0EF2801843FA05F359410EE0A5F1B3
:1025400020050EF1200E012A03FA0EFC28BF4CF0E4
:10255000020C43FA05F3C01851EBE37101F000459A
:1025600007D54FF0000EDCF1000C7EEB00006EEBA7
:102570000101B1F5801F1BD3B1F5001F0CD3490831
:102580005FEA30004FEA3C0C04F101044FEA445288
:1025900012F5800F80F09A80BCF1004F08BF5FEA0F
:1025A000500C50F1000041EB045141EA050130BDEF
:1025B0005FEA4C0C404141EB010111F4801FA4F192
:1025C0000104E9D191F0000F04BF01460020B1FAE7
:1025D00081F308BF2033A3F10B03B3F120020CDA1F
:1025E0000C3208DD02F1140CC2F10C0201FA0CF0FD
:1025F00021FA02F10CE002F11402D8BFC2F1200C62
:1026000001FA02F120FA0CFCDCBF41EA0C01904017
:10261000E41AA2BF01EB0451294330BD6FEA040460
:102620001F3C1CDA0C340EDC04F11404C4F120024B
:1026300020FA04F001FA02F340EA030021FA04F35D
:1026400045EA030130BDC4F10C04C4F1200220FAB4
:1026500002F001FA04F340EA0300294630BD21FAF2
:1026600004F0294630BD94F0000F83F4801306BFB8
:1026700081F480110134013D4EE77FEA645C18BFAC
:102680007FEA655C29D094EA050F08BF90EA020F43
:1026900005D054EA000C04BF1946104630BD91EA3B
:1026A000030F1EBF0021002030BD5FEA545C05D13E
:1026B0004000494128BF41F0004130BD14F580047D
:1026C0003CBF01F5801130BD01F0004545F0FE41F1
:1026D00041F470014FF0000030BD7FEA645C1ABF26
:1026E000194610467FEA655C1CBF0B46024650EA5D
:1026F000013406BF52EA033591EA030F41F4002189
:1027000030BD00BF90F0000F04BF0021704730B50E
:102710004FF4806404F132044FF000054FF00001E3
:1027200050E700BF90F0000F04BF0021704730B5A4
:102730004FF4806404F1320410F0004548BF404279
:102740004FF000013EE700BF42004FEAE2014FEACE
:1027500031014FEA02701FBF12F07F4393F07F4FA9
:1027600081F06051704792F0000F14BF93F07F4FDB
:10277000704730B54FF4607401F0004521F000411E
:1027800020E700BF50EA010208BF704730B54FF0A4
:1027900000050AE050EA010208BF704730B511F0A9
:1027A000004502D5404261EB41014FF4806404F1E1
:1027B00032045FEA915C3FF4DCAE4FF003025FEA63
:1027C000DC0C18BF03325FEADC0C18BF033202EBEB
:1027D000DC02C2F1200300FA03FC20FA02F001FA45
:1027E00003FE40EA0E0021FA02F11444C1E600BFE4
:1027F00070B54FF0FF0C4CF4E06C1CEA11541DBF97
:102800001CEA135594EA0C0F95EA0C0F00F0DEF861
:102810002C4481EA030621EA4C5123EA4C5350EA46
:10282000013518BF52EA033541F4801143F4801397
:1028300038D0A0FB02CE4FF00005E1FB02E506F028
:102840000042E0FB03E54FF00006E1FB03569CF07D
:10285000000F18BF4EF0010EA4F1FF04B6F5007F83
:1028600064F5407404D25FEA4E0E6D4146EB0606F5
:1028700042EAC62141EA55514FEAC52040EA5E507E
:102880004FEACE2EB4F1FD0C88BFBCF5E06F1ED828
:10289000BEF1004F08BF5FEA500E50F1000041EB5F
:1028A000045170BD06F0004646EA010140EA02000C
:1028B00081EA0301B4EB5C04C2BFD4EB0C0541EA2E
:1028C000045170BD41F480114FF0000E013C00F343
:1028D000AB8014F1360FDEBF002001F0004170BD67
:1028E000C4F10004203C35DA0C341BDC04F1140480
:1028F000C4F1200500FA05F320FA04F001FA05F20C
:1029000040EA020001F0004221F0004110EBD370D8
:1029100021FA04F642EB06015EEA430E08BF20EA04
:10292000D37070BDC4F10C04C4F1200500FA04F3A7
:1029300020FA05F001FA04F240EA020001F0004139
:1029400010EBD37041F100015EEA430E08BF20EAAC
:10295000D37070BDC4F1200500FA05F24EEA020EF4
:1029600020FA04F301FA05F243EA020321FA04F023
:1029700001F0004121FA04F220EA020000EBD370DA
:102980005EEA430E08BF20EAD37070BD94F0000FDA
:102990000FD101F00046400041EB010111F4801F0E
:1029A00008BF013CF7D041EA060195F0000F18BFBF
:1029B000704703F00046520043EB030313F4801FFB
:1029C00008BF013DF7D043EA0603704794EA0C0FB5
:1029D0000CEA135518BF95EA0C0F0CD050EA4106CB
:1029E00018BF52EA4306D1D181EA030101F0004148
:1029F0004FF0000070BD50EA410606BF1046194670
:102A000052EA430619D094EA0C0F02D150EA01367B
:102A100013D195EA0C0F05D152EA03361CBF1046BC
:102A200019460AD181EA030101F0004141F0FE415B
:102A300041F470014FF0000070BD41F0FE4141F4DF
:102A4000780170BD70B54FF0FF0C4CF4E06C1CEADF
:102A500011541DBF1CEA135594EA0C0F95EA0C0F94
:102A600000F0A7F8A4EB050481EA030E52EA03354F
:102A70004FEA013100F088804FEA03334FF0805570
:102A800045EA131343EA12634FEA022245EA11159D
:102A900045EA10654FEA00260EF000419D4208BF4E
:102AA000964244F1FD0404F5407402D25B084FEAFB
:102AB0003202B61A65EB03055B084FEA32024FF4A7
:102AC00080104FF4002CB6EB020E75EB030E22BF04
:102AD000B61A754640EA0C005B084FEA3202B6EBC4
:102AE000020E75EB030E22BFB61A754640EA5C0073
:102AF0005B084FEA3202B6EB020E75EB030E22BF03
:102B0000B61A754640EA9C005B084FEA3202B6EB03
:102B1000020E75EB030E22BFB61A754640EADC00C2
:102B200055EA060E18D04FEA051545EA16754FEA24
:102B300006164FEAC30343EA52734FEAC2025FEA42
:102B40001C1CC0D111F4801F0BD141EA00014FF0D1
:102B500000004FF0004CB6E711F4801F04BF0143A2
:102B60000020B4F1FD0C88BFBCF5E06F3FF6AFAEBE
:102B7000B5EB030C04BFB6EB020C5FEA500C50F14E
:102B8000000041EB045170BD0EF0004E4EEA1131D1
:102B900014EB5C04C2BFD4EB0C0541EA045170BDD8
:102BA00041F480114FF0000E013C90E645EA060E1C
:102BB0008DE60CEA135594EA0C0F08BF95EA0C0F4A
:102BC0003FF43BAF94EA0C0F0AD150EA01347FF492
:102BD00034AF95EA0C0F7FF425AF104619462CE769
:102BE00095EA0C0F06D152EA03353FF4FDAE1046CC
:102BF000194622E750EA410618BF52EA43067FF41D
:102C0000C5AE50EA41047FF40DAF52EA43057FF4AC
:102C1000EBAE12E74FEA410212F5001215D211D5C0
:102C20006FF47873B3EB625212D94FEAC12343F0C9
:102C3000004343EA505311F0004F23FA02F018BF4B
:102C4000404270474FF00000704750EA013005D114
:102C500011F0004008BF6FF0004070474FF00000D7
:102C6000704700BF4FEA4102B2F1E04324BFB3F521
:102C7000001CDCF1FE5C0DD901F0004C4FEAC002F3
:102C80004CEA5070B2F1004F40EB830008BF20F0D7
:102C90000100704711F0804F21D113F13872BCBF91
:102CA00001F00040704741F480114FEA5252C2F1E6
:102CB0001802C2F1200C10FA0CF320FA02F018BF2F
:102CC00040F001004FEAC1234FEAD32303FA0CFC82
:102CD00040EA0C0023FA02F34FEA4303CCE77FEA11
:102CE000625307D150EA01331EBF4FF0FE4040F45B
:102CF0004000704701F0004040F0FE4040F400000A
:102D0000704700BF80F0004002E000BF81F000414A
:102D100042001FBF5FEA410392EA030F7FEA226C81
:102D20007FEA236C6AD04FEA1262D2EB1363C1BF11
:102D3000D218414048404140B8BF5B42192B88BF80
:102D4000704710F0004F40F4000020F07F4018BFA3
:102D5000404211F0004F41F4000121F07F4118BFC3
:102D6000494292EA030F3FD0A2F1010241FA03FC6B
:102D700010EB0C00C3F1200301FA03F100F0004353
:102D800002D5494260EB4000B0F5000F13D3B0F11B
:102D9000807F06D340084FEA310102F10102FE2A8A
:102DA00051D2B1F1004F40EBC25008BF20F00100FA
:102DB00040EA03007047490040EB000010F4000FA8
:102DC000A2F10102EDD1B0FA80FCACF1080CB2EB3B
:102DD0000C0200FA0CF0AABF00EBC250524218439A
:102DE000BCBFD0401843704792F0000F81F400013F
:102DF00006BF80F400000132013BB5E74FEA410312
:102E00007FEA226C18BF7FEA236C21D092EA030F7D
:102E100004D092F0000F08BF0846704790EA010FF7
:102E20001CBF0020704712F07F4F04D1400028BF24
:102E300040F00040704712F100723CBF00F5000006
:102E4000704700F0004343F0FE4040F4000070473C
:102E50007FEA226216BF08467FEA236301464202E8
:102E600006BF5FEA412390EA010F40F480007047FB
:102E70004FF0000304E000BF10F0004348BF4042A1
:102E80005FEA000C08BF704743F0964301464FF0DD
:102E900000001CE050EA010208BF70474FF0000339
:102EA0000AE000BF50EA010208BF704711F000437A
:102EB00002D5404261EB41015FEA010C02BF84464A
:102EC0000146002043F0B64308BFA3F18053A3F5A9
:102ED0000003BCFA8CF2083AA3EBC25310DB01FAF0
:102EE00002FC634400FA02FCC2F12002BCF1004F74
:102EF00020FA02F243EB020008BF20F00100704705
:102F000002F1200201FA02FCC2F1200250EA4C0058
:102F100021FA02F243EB020008BF20EADC7070479E
:102F20004FF0FF0C1CEAD0521EBF1CEAD15392EAAC
:102F30000C0F93EA0C0F6FD01A4480EA010C400288
:102F400018BF5FEA41211ED04FF0006343EA5010E2
:102F500043EA5111A0FB01310CF00040B1F5000F24
:102F60003EBF490041EAD3715B0040EA010062F1D3
:102F70007F02FD2A1DD8B3F1004F40EBC25008BFBD
:102F800020F00100704790F0000F0CF0004C08BFDB
:102F900049024CEA502040EA51207F3AC2BFD2F1A8
:102FA000FF0340EAC250704740F400004FF00003B6
:102FB000013A5DDC12F1190FDCBF00F000407047F0
:102FC000C2F10002410021FA02F1C2F1200200FA2E
:102FD00002FC5FEA310040F1000053EA4C0308BFF5
:102FE00020EADC70704792F0000F00F0004C02BF46
:102FF000400010F4000F013AF9D040EA0C0093F0C1
:10300000000F01F0004C02BF490011F4000F013B1A
:10301000F9D041EA0C018FE70CEAD15392EA0C0F88
:1030200018BF93EA0C0F0AD030F0004C18BF31F0F3
:10303000004CD8D180EA010000F00040704790F0C9
:10304000000F17BF90F0004F084691F0000F91F06D
:10305000004F14D092EA0C0F01D142020FD193EA33
:103060000C0F03D14B0218BF084608D180EA0100BB
:1030700000F0004040F0FE4040F40000704740F097
:10308000FE4040F4400070474FF0FF0C1CEAD05265
:103090001EBF1CEAD15392EA0C0F93EA0C0F69D0C1
:1030A000A2EB030280EA010C49024FEA402037D02C
:1030B0004FF0805343EA111143EA10130CF0004023
:1030C0008B4238BF5B0042F17D024FF4000C8B4213
:1030D00024BF5B1A40EA0C00B3EB510F24BFA3EBF3
:1030E000510340EA5C00B3EB910F24BFA3EB9103C3
:1030F00040EA9C00B3EBD10F24BFA3EBD10340EA1D
:10310000DC001B0118BF5FEA1C1CE0D1FD2A3FF662
:1031100050AF8B4240EBC25008BF20F00100704717
:103120000CF0004C4CEA50207F32C2BFD2F1FF03BA
:1031300040EAC250704740F400004FF00003013AEB
:1031400037E792F0000F00F0004C02BF400010F48F
:10315000000F013AF9D040EA0C0093F0000F01F0A3
:10316000004C02BF490011F4000F013BF9D041EAC5
:103170000C0195E70CEAD15392EA0C0F08D14202F8
:103180007FF47DAF93EA0C0F7FF470AF084676E7CB
:1031900093EA0C0F04D14B023FF44CAF08466EE7A4
:1031A00030F0004C18BF31F0004CCAD130F0004272
:1031B0007FF45CAF31F000437FF43CAF5FE700BFCA
:1031C0004FEA4002B2F1FE4F0FD34FF09E03B3EB34
:1031D00012620DD94FEA002343F0004310F0004F74
:1031E00023FA02F018BF404270474FF000007047CA
:1031F00012F1610F01D1420205D110F0004008BF69
:103200006FF0004070474FF00000704710B5054C5C
:1032100013462CB10A4601460220AFF3008010BDD0
:10322000204610BD0000000010B5431E0A44914224
:1032300004D011F8014B03F8014FF8E710BD034625
:103240000244934202D003F8011BFAE770470000E2
:1032500038B5124B05461C68A36BD3B91820FDF78F
:1032600009FD43F20E33A06303804AF6CD33438059
:1032700041F2342383804EF26D63C3804DF6EC63DC
:103280000381052343810B23838101220023C0E9AD
:103290000423A36B00221D615A6138BD90000020F9
:1032A00010F8012B11F8013B012A28BF9A42F7D0F0
:1032B000D01A7047024B0146186800F003B800BFEF
:1032C0009000002070B5064608460C4600F00DF848
:1032D000451C29463046FDF7F5FC064618B12A463E
:1032E0002146FFF7A1FF304670BD034613F8012BBE
:1032F000002AFBD1181A0138704700002100080885
:10330000610008088D00080891000808000000000E
:10331000526573657474696E67204D656D6F72795F
:103320000032352520646F6E650035302520646FCE
:103330006E650037352520646F6E6500446F6E65DD
:103340000052656C656173650073746174654F66E6
:10335000436867004861726452657365740053691D
:10336000676E616C006D6561737572654E6F770095
:10337000257320533A25322E306625252C20513ACC
:1033800025322E3066252520005465737420466151
:10339000696C65645265736574204465766963651C
:1033A00020746F20436F6E74696E756500426567A7
:1033B000696E6E696E6720546573742052756E0075
:1033C00054657374205374617274004661696C654E
:1033D00064202D204D697373696E67204652414DFC
:1033E000005465737420233100496E2070726F633E
:1033F000657373202D2045726173696E6720465294
:10340000414D004661696C6564202D204652414D56
:103410002052656164204572726F72004652414DC0
:103420002054657374205061737365640054656D36
:103430007065726174757265206973202569460034
:103440005465737420233200507265737320557372
:103450006572205377697463680054657374202320
:103460003300557365722053776974636820507216
:1034700065737320446574656374656400426174A8
:103480007465727920636861726765206C65766522
:103490006C203D202569005465737420233400425C
:1034A0006174746572792063686172676520746500
:1034B00073742070617373656400546573742023A2
:1034C000350045787065637420746869732074658D
:1034D000737420746F2074616B65207E3630206DAC
:1034E000696E7574657300546573742023362053B8
:1034F00074617274656400456C61707365642074F6
:10350000696D6520696E206D696E757465732069DB
:103510007320256900546573742023362046696E34
:1035200069736865640046696E616C2054657374E4
:10353000202D204861726420526573657420696E85
:103540002031207365636F6E6400546573742023AB
:103550003700496620796F75207365652074686946
:1035600073206D657373616765202D2068617264D7
:103570002072657365742074657374206661696C6C
:10358000656400556E6B6E6F776E004E6F6E6500F2
:10359000576946690047534D00554D545300434405
:1035A0004D41004C54450049454545383032313590
:1035B00034004C54455F4341545F4D31004C5445F9
:1035C0005F4341545F4E423100302E3232000000E2
:1035D0000000000000000000A50D08089B0D080871
:1035E000910D0808030D0808850D0808790D0808D5
:1035F0006D0D0808650D08085B0D0808510D0808D9
:103600000D0D08080000000000000000550E08081D
:10361000D70E0808570E0808150F08085D0E080891
:10362000E50E0808810E0808A50E0808FCFFFFFF3C
:1036300000000000CF0E080800000000000000009D
:103640005D0F0808630F0808B90F0808710F080814
:103650005F0F080800000000000000005D16080869
:10366000A71608087F1608085F16080887160808B6
:103670008F160808971608089F1608080000000013
:10368000000000005F1708084F17080851170808C6
:10369000626175640053657269616C0055534253F1
:1036A000657269616C310074797065007061726176
:1036B0006D00636D6400696400686E640073747209
:1036C0006D0066696C74006C766C006164644861BE
:1036D0006E646C65720072656D6F766548616E64CC
:1036E0006C657200656E756D48616E646C657273B1
:1036F000004A534F4E53747265616D4C6F67486159
:103700006E646C6572006170700025303130752018
:10371000005D20002564002C200028293A2000208C
:103720005B00636F6465203D200064657461696CB3
:1037300073203D20000D0A0066006C6E00666E006E
:10374000636F64650064657461696C006E6F6E65BB
:1037500000747261636500696E666F007761726EF6
:10376000006572726F720070616E696300616C6CEB
:10377000000000000000000000000000FD17080825
:1037800007180808111808081B1808082518080841
:10379000311808083D180808491808085118080881
:1037A0005B18080865180808000000000000000009
:1037B0000D1A08080F1A08085A00252B3033643AEE
:1037C000253032750025592D256D2D256454254849
:1037D0003A254D3A2553257A0061736374696D6506
:1037E000000000000000000000000000F11B0808BD
:1037F000411C08084F1C0808C5180808051C0808C3
:10380000271C0808131C08083B1C0808F31B0808A1
:10381000F71B08080000000000000000F91C080861
:10382000491D0808571D0808C5180808351D08084F
:10383000FB1C0808111D0808431D0808271D08085F
:10384000F51C080800000000000000000000000057
:103850000000000000000000000000000000000068
:103860000000000000000000000000000000000058
:103870000000000000000000000000000000000048
:103880000000000000000000000000000000000038
:103890000000000000000000000000000000000028
:1038A000000000004300000059010808B1070808A3
:1038B000F9070808250E0808ED170808B1180808C8
:1038C000F1190808591B0808DD1B080851210808D0
:1038D00081210808F1210808B522080839230808C1
:1038E000BD230808000000000000000000000000E8
:0438F00000000000D4
:1038F40060EA0000833508088B350808903508080D
:1039040095350808993508089E350808A335080830
:10391400A7350808B2350808BD350808D93708089E
:10392400000000004438080864380808843808088F
:103934000000000000000000000000000000000083
:10394400A438080800000000000000000000000087
:103954000000000000000000000000000000000063
:103964000000000000000000000000000000000053
:103974000000000000000000000000000000000043
:0439840030000020EF
:10398800FFFFFFFF00000102030405060708090AFC
:103998000B0C0D0E0F101112131415161718191AF7
:0839A8001B1C1D1E1F2028003E
:0439B00078563412FF
:0400000508080020C7
:00000001FF
