:020000040808EA
:1000000000000808B8350808000006000A000501CD
:0800100004024E040000000090
:10001800D02F080809480A4908B5884205D0094A76
:10002800824202D0121A02F065FF0748074A0021EF
:10003800121A02F06AFF064808BD00BF000400203B
:10004800243508086C0400206C040020800A002075
:10005800800A002070B501F0FFFD074B074C1E46D3
:10006800E41AA4080025A54204D056F8253098477C
:100078000135F8E770BD00BFD83408081435080802
:1000880000F0DAB808B500F0DDF9BDE8084001F085
:10009800A5BD00F0A3BD00F0A9BD0078B0FA80F0BE
:1000A800400970470123037070470368C9B29B6811
:1000B800184700224270704708B5017001F070FEC1
:1000C80001F0C6F9012008BD70B506460C46154674
:1000D80001F066FE317801F0D2F901F061FE210AE3
:1000E800FFF7E3FF01F05CFEE1B2FFF7DEFF01F08E
:1000F80057FE036829469B68984701F051FEBDE802
:10010800704001F0C7B938B504460D4601F048FE05
:10011800217801F0B4F901F043FE290AFFF7C5FF81
:1001280001F03EFEE9B2FFF7C0FF01F039FE01F031
:10013800B1F901F035FE0122217801F098F901F0BA
:100148002FFE03685B699847C0B238BD00F04ABB10
:1001580008B5054901F085FB20B10420012101F013
:10016800DCFD012008BD00BF9630080837B50546FC
:100178009DF8184023438DF800303C2300F056FFCB
:10018800284603B030BD000008B500F00BFB034B58
:100198001860BDE8084000F0A1BC00BF7409002049
:1001A80081B20148FFF7AFBF750400200A4681B24B
:1001B8000148FFF789BF00BF7504002010B501F0A2
:1001C8006DFC184901F06FFA042400212046FFF75E
:1001D800EDFFB4F5005F03D101F060FC124914E0B3
:1001E800B4F5804F03D101F059FC10490DE0B4F586
:1001F800C04F03D101F052FC0D4906E047F6FF73EA
:100208009C4204D101F04AFC0A4901F04CFA01343D
:10021800B4F5004FD9D107210020BDE81040FFF701
:10022800C5BF00BFEA2F0808FB2F080804300808DC
:100238000D30080816300808F8B50021022001F032
:100248005BFD0021052001F057FD0021112001F080
:1002580053FD0121072001F04FFD01211D2001F070
:100268004BFD01211D2001F058FD0121062001F060
:1002780043FD0121062001F050FD0021062001F078
:100288004CFD0121042001F037FD002304221C4904
:100298001C4800F013FC002302221B491B4800F0F5
:1002A8000DFC1B4A1B491C4800F0A0FD00F026FC71
:1002B8000446E0B900F01AFC204600F08BFA044628
:1002C800164E00250027002000F084FA001B61EB81
:1002D80005018F4208BF864205D300F00FFC10B914
:1002E80000F0FCFBEFE700F009FCFFF74DFF0C48BE
:1002F80001F04CF802F0CAFD034B1860F8BD00BFCE
:10030800E42F08081B300808880400202330080858
:100318002E30080859010808C90D08088F5F010028
:10032800780400200000000008B50A2001F021FD33
:1003380002F05EF814A3D3E9002302F0BFF802F03C
:10034800F7FA4FF0665102F051FC02F063F8002210
:100358000F4B01F0FFFE00220E4B02F0AFF802F047
:10036800BFFA02F045F800220B4B02F0A7F8002272
:100378000A4B02F0CDF90022094B01F0EDFE02F024
:10038800AFFA084B186008BD6666666666660A407E
:100398000000E03F000059400000224000001440E7
:1003A800000040407004002008B5064B01210620DB
:1003B800197001F0B2FCBDE808400021062001F0E8
:1003C800ACBC00BF8004002038B5046805467CB189
:1003D8006368013B63605BB9236820469B68984764
:1003E800A368013BA3601BB923682046DB689847D4
:1003F800284638BD1FB54FF47A7000F01FFC0F4B2C
:1004080000221B7802A88DF800200D49FFF7AEFEE8
:1004180003A8FFF7D9FF0121072001F07EFC4FF464
:10042800FA6000F00BFC0021072001F076FC4FF485
:10043800FA6000F003FCFFF7A7FEECE77404002065
:1004480038300808F0B59A4C95B0002599492378BA
:10045800994A04A88DF80050FFF788FE05A8FFF711
:10046800B3FF4FF47A7000F0E9FBFFF78DFE5021DF
:100478009248FFF721FE58B98DF80000237804A8A8
:100488008F4A9049FFF772FE05A8FFF79DFF11E01C
:100498002846FFF785FE07280CD023788A4A894921
:1004A80004A88DF80050FFF761FE05A8FFF78CFF40
:1004B800FFF784FE4FF47A7000F0C0FBFFF764FE8C
:1004C8000020FFF76DFE002207288DF80020237812
:1004D80014BF7E4A7E4A7B4904A8FFF747FE05A859
:1004E800FFF772FF4FF47A7000F0A8FBFFF74CFE9D
:1004F800FFF71AFF00250346764A402104A800F0BA
:1005080085FB237804AA744902A88DF80050FFF7E8
:100518002DFE03A8FFF758FF4FF47A7000F08EFB0A
:10052800FFF732FE23786D4A6D4902A88DF8005016
:10053800FFF71CFE03A8FFF747FF4FF47A7000F09F
:100548007DFB052001F002FC10B1FFF71DFEF8E766
:100558002378644A62498DF8000002A8FFF706FE76
:1005680003A8FFF731FF4FF47A7000F067FBFFF73D
:100578000BFE5D4F5D4E5E4D00F014F933683A682E
:10058800134498421CD35B4800F000FF02F07EFC45
:10059800594A03462860402104A800F037FB00228E
:1005A800237856498DF8002002A804AAFFF7DEFD3B
:1005B80003A8FFF709FFFFF7E7FD00F0F3F8306045
:1005C8002B68412BD8DD002723784D4A4D4902A8D6
:1005D8008DF80070FFF7CAFD03A8FFF7F5FE01F0DC
:1005E8008DF9494D0646FFF7DFFE2F7000F086FAB9
:1005F80058B12F4B02A81B78444A8DF80070444923
:10060800FFF7B4FD03A8FFF7DFFE4FF47A7000F0A0
:1006180015FBFFF7B9FD2B7833B9FFF7B5FD4FF49C
:100628007A7000F00BFBF6E701F068F93C23801BB9
:1006380090FBF3F3374A402104A800F0E7FA00F0F2
:100648005DFA58B100228DF8002002A8237804AA88
:100658003149FFF78BFD03A8FFF7B6FE4FF47A7018
:10066800002500F0EBFAFFF78FFD23782B4A2C4981
:1006780002A88DF80050FFF779FD03A8FFF7A4FE44
:100688004FF47A7000F0DAFAFFF77EFD01210420BA
:1006980001F043FB2378234A214902A88DF8005032
:1006A800FFF764FD03A8FFF78FFEFFF7A3FE00BF67
:1006B800740400206F3008085C30080875040020B6
:1006C8007A3008089030080898300808B2300808CE
:1006D800CB300808DC300808EF300808F730080885
:1006E800093108081131080800040020840400209A
:1006F80088040020780400202C31080846310808B6
:100708004E31080869310808800400207131080852
:1007180096310808A6310808C4310808D5310808F8
:10072800F9310808013208080C4B10B501241C7077
:1007380000F058F80A48FFF7BCFC2046094C002195
:1007480000F088F90021204600F0E0FD2046BDE8D1
:100758001040054A054901F0A9BB00BF74040020F8
:1007680075040020780400206C0400203313080866
:1007780000F038B808B5024B1B68DB6B019308BD65
:100788002000060808B5024B1B681B6B019308BDC7
:10079800D001040808B5024B1B685B68019308BDCB
:1007A8009C01040808B5024B1B685B69019308BDEE
:1007B8009C01040808B5024B1B68DB69019308BD5E
:1007C8009C01040808B5024B1B689B6D019308BD8A
:1007D8009C01040808B5024B1B68DB6D019308BD3A
:1007E8009C01040808B5024B1B681B68019308BDEF
:1007F800B001040808B5024B1B685B68019308BD8B
:10080800B001040808B5024B1B689B68019308BD3A
:10081800B001040808B5024B1B68DB68019308BDEA
:10082800B001040808B5024B1B681B69019308BD99
:10083800B001040808B5024B1B685B69019308BD49
:10084800B001040808B5024B1B681B6B019308BD77
:10085800B001040808B5024B1B68DB68019308BDAA
:10086800AC01040808B5024B1B685B69019308BD1D
:10087800AC01040808B5024B1B689B69019308BDCD
:10088800AC01040808B5024B1B68DB69019308BD7D
:10089800AC01040808B5024B1B681B6A019308BD2C
:1008A800AC01040808B5024B1B685B6A019308BDDC
:1008B800AC01040808B5024B1B689B6A019308BD8C
:1008C800AC01040808B5024B1B68DB6A019308BD3C
:1008D800AC01040808B5024B1B681B6B019308BDEB
:1008E800AC01040808B5024B1B685B6B019308BD9B
:1008F800AC01040808B5024B1B681B6C019308BDCA
:10090800AC01040808B5024B1B689B6C019308BD39
:10091800AC01040808B5024B1B68DB6C019308BDE9
:10092800AC01040808B5024B1B68DB69019308BDDC
:10093800B401040808B5024B1B681B6A019308BD83
:10094800B401040808B5024B1B689B69019308BDF4
:10095800C401040808B5024B1B685B6A019308BD13
:10096800C401040808B5024B1B689B6A019308BDC3
:10097800C401040808B5024B1B68DB6A019308BD73
:10098800C401040808B5024B1B681B6B019308BD22
:10099800C401040808B5024B1B685B6B019308BDD2
:1009A800C401040808B5024B1B689B6B019308BD82
:1009B800C401040808B5024B1B681B6C019308BDF1
:1009C800C401040808B5024B1B681B68019308BDE5
:1009D8001C00060808B5024B1B681B69019308BD7B
:1009E8001C00060808B5024B1B685B69019308BD2B
:1009F8001C00060808B5024B1B689B69019308BDDB
:100A08001C00060808B5024B1B68DB69019308BD8A
:100A18001C00060808B5024B1B681B6A019308BD39
:100A28001C00060808B5024B1B681B68019308BD2B
:100A3800A401040808B5024B1B685B68019308BD54
:100A4800A401040808B5024B1B685B69019308BD43
:100A5800A401040808B5024B1B68DB6A019308BDB2
:100A6800A401040808B5024B1B68DB6C019308BDA0
:100A7800A401040808B5024B1B685B6D019308BD0F
:100A8800A401040808B5024B1B689B6D019308BDBF
:100A9800A401040808B5034B1B68D3F890300193F0
:100AA80008BD0000A401040808B5034B1B68D3F86F
:100AB8009C30019308BD0000A401040808B5024B4E
:100AC8001B681B68019308BDCC01040808B5024BDC
:100AD8001B685B68019308BDCC01040808B5024B8C
:100AE8001B689B68019308BDCC01040808B5024B3C
:100AF8001B68DB68019308BDCC01040808B5024BEC
:100B08001B685B69019308BDCC01040808B5024B5A
:100B18001B681B6A019308BDCC01040808B5024B89
:100B28001B681B6B019308BDCC01040808B5024B78
:100B38001B68DB6B019308BDCC01040808B5024BA8
:100B48001B685B68019308BDC801040808B5024B1F
:100B58001B689B68019308BDC801040808B5024BCF
:100B68001B68DB68019308BDC801040808B5024B7F
:100B78001B681B69019308BDC801040808B5024B2E
:100B88001B685B69019308BDC801040808B5024BDE
:100B98001B689B69019308BDC801040808B5024B8E
:100BA8001B68DB69019308BDC801040808B5024B3E
:100BB8001B681B6A019308BDC801040808B5024BED
:100BC8001B681B6B019308BDC801040808B5024BDC
:100BD8001B685B6B019308BDC801040808B5024B8C
:100BE8001B681B68019308BDA001040808B5024BE7
:100BF8001B685B68019308BDA001040808B5024B97
:100C08001B689B68019308BDA001040808B5024B46
:100C18001B68DB69019308BDA001040808B5024BF5
:100C28001B68DB6A019308BDA001040808B5024BE4
:100C38001B681B6B019308BDA00104080021FFF786
:100C480001BF10B5836804460BB901F034F9C368D5
:100C58009847A3681BB1032221462046984720469F
:100C6800BDE81040FFF717BA002211464068FFF7A9
:100C78007DBF2DE9FF41002604AC05461046884695
:100C8800174644F8046D02F096F9009681B2D8F838
:100C9800043022463846FFF76DFD20B1314628461C
:100CA80000F042FC03E02146284600F035FC2846C7
:100CB80004B0BDE8F081002211464068FFF776BF16
:100CC800002211464068FFF781BF00224068FFF705
:100CD80075BF002281F001014068FFF75FBF002364
:100CE8001A4619464068FFF751BF00231A461946AD
:100CF8004068FFF743BF002211464068FFF726BF50
:100D0800002202214068FFF729BF00231A464068E5
:100D1800FFF714BF38B50C4C28252A460021204679
:100D280002F0F3F84FF0FF3363602580074C04238B
:100D380020466360064B2C2540F8083B2A460021D4
:100D480002F0E3F8258138BDC00400208C0400209F
:100D58003C32080870470020704710B50446FFF77A
:100D68009AF9204610BD08B508B1FFF7F6FF08BD8F
:100D780010B58368044613B10322014698472046FC
:100D880010BD38B5C468D4B12378022B02D1E0680D
:100D9800FFF72CFF65682DB12846FFF7E9FF2846C5
:100DA800FFF779F9A5682DB12846FFF7E1FF284636
:100DB800FFF771F92046BDE83840FFF76CB938BD38
:100DC80010B588B00446684600F01EFD694604A8C0
:100DD80000F03CFD04A8A047044604A800F0CDFCA0
:100DE800684600F0CAFC204608B010BDF0B50746BA
:100DF8000E46154685B0102422460021684602F0AA
:100E080084F8002269461046ADF800400297039620
:100E18000195FFF75BFE05B0F0BD13B5044691E8F8
:100E2800050000234B600B602060626001A80193FD
:100E38000093FFF7C9FA204602B010BD0B680360A3
:100E480013B15A6801325A607047F7B50C46064626
:100E58000F4654F8043B02AD45F8083D214601A869
:100E6800FFF7ECFF29463046FFF7D7FF01A8FFF749
:100E7800ABFA2046FFF7A8FA3846FFF70CF93046D8
:100E880003B0F0BD13B50B46044603C88DE8030054
:100E980093E8030084E803009DE8030083E8030067
:100EA80002B010BD826810B50AB901F004F8C36831
:100EB800BDE81040184708B5006800F11001FFF7B9
:100EC800F1FF08BD826810B50AB900F0F4FFC368E5
:100ED800BDE81040184708B5006800F11001FFF799
:100EE800F1FF08BD38B5002383608B6804460D46C2
:100EF8002BB102229847EB68E360AB68A3602046F9
:100F080038BD00002DE9F0414FF69C7304684FF09E
:100F1800020086B0B1F904208B8000230F688DF899
:100F280000300B60D4E84F1F994203D1C4E8450F45
:100F3800002DF7D102D08DF800106BE014F10C05EC
:100F48001CBFE7602282BFF35F8F18BF1F460123D3
:100F58006370BFF35F8F04F10803002053E8006F4C
:100F680043E80002002AF9D1BFF35F8F002E51D069
:100F7800FFF778FD20B129463046FFF793FF43E09D
:100F880031466846FFF7AEFFE068B4F9105008B183
:100F980001F0F6FF04901020ADF81450FFF779F82F
:100FA800054630B34FF00008C0F808801820FFF756
:100FB80070F80446C0B1C0F8088001466846FFF7DB
:100FC80061FF029BA268A360039B0292E268E36050
:100FD800BDF814300392A3824FF69C73ADF8143019
:100FE800049BCDF8108023610D4B2C60EB600D4BFA
:100FF800AB600498FFF7FAFD6846FFF7B9FE0022D8
:1010080029460948FFF736FD3046FFF7B1FE30465E
:10101800FFF741F83846FFF7E9FD06B0BDE8F08173
:10102800BF0E08081D1108084B0C08082DE9F04FE1
:101038008BB007AD4FF0000B0646994614200C23E1
:101048000F4690469DF850A0C5F804B0C5F808B002
:101058000793FFF71EF8044638B180F800B080F80F
:1010680001B0C0F804B0C0F808B000231020039401
:101078000493FFF70EF828B1012343608360234BE4
:10108800C4600360224B049008200893FFF701F81E
:10109800044628B1039B04A940F8043BFFF7CEFEA1
:1010A80000955FFA8AF34A46414638460994FFF7A5
:1010B8002DFDB8B9039B5B7803F0FF0293B94FF697
:1010C8009C7305A903A80592ADF81830FFF71AFF1D
:1010D8000598FFF78BFD05A80999FFF7B6FE06A846
:1010E800FFF772F9039B04A906A80593FFF7A6FE6C
:1010F80005A93046FFF791FE06A8FFF765F904A891
:10110800FFF762F930460BB0BDE8F08F703208087F
:1011180085120808022AF8B5044606D0032A17D013
:10112800012A20D10B6803601DE018200E68FEF725
:10113800B0FF054650B13146FFF7D4FE3069B6F925
:10114800147008B101F01CFF2861AF8225600AE025
:10115800046844B12069FFF749FD2046FFF708FEFF
:101168002046FEF798FF0020F8BD38B500238360BD
:101178008B6804460D462BB102229847EB68E36062
:10118800AB68A360204638BD022A70B5044606D075
:10119800032A11D0012A17D10B68036014E0142028
:1011A8000E68FEF776FF054620B13146FFF7DDFFF2
:1011B800337C2B74256007E004682CB12046FFF7C8
:1011C800D7FD2046FEF767FF002070BDF0B50C463E
:1011D800BFF35F8F87B0002350E8006F40E800320C
:1011E800002AF9D1BFF35F8F002E3ED01846FFF7D3
:1011F80039FC074620B121463046FFF763FE2EE052
:10120800314601A8FFF7B1FF237810208DF814307C
:10121800FEF73FFF0546D0B187601420FEF739FF7F
:10122800044678B18760014601A8FFF72BFE039BAF
:10123800A268A360049B0392E268E3609DF81430FF
:10124800049223740A4B2C60EB600A4BAB6001A834
:10125800FFF78EFD002229460748FFF70BFC3046B2
:10126800FFF786FD3046FEF716FF07B0F0BD00BF5A
:10127800DF0E0808911108084B0C080830B5044621
:1012880085B00D4668461146FFF7DFFD7CB124B2F4
:1012980028460DB101F074FE029002A96846ADF827
:1012A8000C40FFF72FFE0298FFF7A0FC1DE04FF05F
:1012B800010200988DF80840D0E84F3FA34203D1BF
:1012C800C0E8412F0029F7D102D08DF808300CE092
:1012D80010F10C014FF0010318BF0373BFF35F8FC8
:1012E800043000F8033CFFF771FF01A8FFF76CF822
:1012F80005B030BD006800F0D4B810B504460160F0
:1013080002710AB1FFF7F6FF204610BD38B5044652
:101318000D4600F065FD2A4601462046FFF7EDFF21
:10132800204638BD006800F0C5B810B503790446FA
:101338000BB1FFF7F7FF204610BDF8B504460F467E
:1013480016461D46FFF7D6FF2068362100F09BF8A9
:101358002068394603689B6898470121206800F097
:1013680095F8022236210123206800F083F82068CE
:1013780003685B6998473070206803685B69984721
:1013880028702046BDE8F840FFF7CCBF13B500220F
:1013980002AB03F8012D8DF8062004210DF1060299
:1013A800FFF7CBFF9DF8070001F022F80022084B59
:1013B80001F084F801F0BCFA04469DF8060001F03B
:1013C800C1FB0146204601F009FB02B010BD00BF79
:1013D8000000703F7047F8B5064615460C468F1852
:1013E800BC4206D0336814F8011B9B683046984706
:1013F800F6E72846F8BD0022007CFFF74BBA00212B
:10140800007CFFF74FBA0021007CFFF753BA002198
:10141800007CFFF757BA0021007CFFF75BBA10B5D4
:101428000446FEF738FE204610BD000010B50446FD
:1014380008464FF47A73A360044B0021207461605E
:101448002360FFF757FA204610BD00BF8C3208080A
:1014580000231A461946007CFFF7FCB913B500248F
:10146800007C0094FFF7FEF9C0B202B010BD012362
:10147800FFF7F4BFDBB2D2B2C9B2FFF7EFBF002269
:10148800007CFFF7F7B9C9B2FFF7F9BF0022007C6B
:10149800FFF7F8B90121FFF7F9BF0021007CFFF73A
:1014A80021BA08B50021007CFFF72CFAB0FA80F0C9
:1014B800400908BD08B50021007CFFF72BFAB0FAF7
:1014C80080F0400908BD704710B50446FEF7E3FDFB
:1014D800204610BDF8B50F4600F10806051D00248A
:1014E80016F8011D0A22384600F011F9AE420444EC
:1014F80007D0002CF4D02E21384600F0C5F804445B
:10150800EEE72046F8BD0000024A02600022426071
:10151800704700BFB4320808024A02600A68426095
:10152800704700BFB4320808014A41600260704742
:10153800B432080810B59DF8084044EA032343EA8A
:10154800024242EA0161416010BD000037B5044D16
:1015580005609DF818500095FFF7ECFF03B030BD0B
:10156800B4320808014A024B1A60704778330808F9
:10157800E804002000231A464068FFF7DFBA00227B
:1015880002214068FFF7EABA002211464068FFF7D7
:10159800DDBA002211464068FFF7E8BA00231A4670
:1015A80019464068FFF7EABA00231A461946406808
:1015B800FFF7ECBA002281F001014068FFF7EEBAAC
:1015C80000224068FFF7FABA002211464068FFF788
:1015D800FDBA002211464068FFF7E8BAF0B5174691
:1015E80087B0054604A8FFF78FFF002606AC3846EB
:1015F80044F80C6D01F0DFFC0A4B009681B25B6881
:1016080022463846FFF7B6F820B131462846FFF79C
:101618008BFF03E021462846FFF77EFF284607B0E8
:10162800F0BD00BF8C040020024B034A1A60002260
:101638005A607047EC040020AC330808F8B5064639
:101648000D468F180024BD420CD0336815F8011BD5
:101658009B6830469847002801DB0444F3E7002CD8
:1016680008BF04462046F8BD70B505460C46084636
:1016780049B101F0A0FC2B68024621462846BDE886
:101688007040DB68184770BD03689B68184738B519
:101698000D210546FFF7F8FF0A2104462846FFF703
:1016A800F3FF204438BD38B50546FFF7DDFF044693
:1016B8002846FFF7ECFF204438BD012A98BF0A22CC
:1016C80030B50B468BB000218DF824100DF12304A2
:1016D800B3FBF2F505FB1233DBB2092B94BF3033B1
:1016E8003733DBB2214604F801392B46002DEFD100
:1016F800FFF7BAFF0BB030BD10B422B90368C9B206
:101708009B6810BC1847D2B210BCFFF7D6BFFFF7D2
:10171800F3BF10B50446FFF72BFB204610BD0000B1
:10172800034800238360034A034900F0BFBB00BF9E
:10173800F40400206C0400201B170808704710B53B
:101748000446FEF7A8FC204610BD000070B504460C
:101758000E46074B0025036040F80C5FFFF712F8B0
:1017680030462671FFF7DEF8A560204670BD00BF41
:10177800E03308080079FFF7DDB810B504460068C3
:10178800FFF734FA204610BD10B50446006808B1CA
:10179800FFF72CFA00232360A360636010BD38B5FF
:1017A80004460D4600680131FFF728FA10B184E8B5
:1017B8002100012038BD10B50368044613B1436801
:1017C8008B4207D22046FFF7EAFF20B1A3680BB986
:1017D80022681370012010BD70B50E4611460446EC
:1017E8001546FFF7E8FF18B92046FFF7CDFF09E0D7
:1017F8002A463146A560206801F07CFB2268A36870
:101808000021D154204670BD38B50023044603603A
:101818004360836003730D4639B1084601F0CBFB82
:10182800294602462046FFF7D7FF204638BD8842A2
:1018380010B50B46044607D0096819B19A68FFF736
:10184800CBFF01E0FFF7A0FF204610BD10B504460E
:1018580000230360436083600373FFF7E8FF2046BB
:1018680010BD08B582680B4612B919B9012008BD28
:1018780011B90368187802E0006801F077FBB0FA44
:1018880080F0400908BD00004FF6FF72034B0020AE
:10189800187058809A80FFF7CDB800BF0405002063
:1018A80008B50020FFF73AF928B1FFF727F980F0CB
:1018B8000100C0B208BD012008BD10B50020FEF728
:1018C80081FF044668B9FFF7ADF801280BD120461F
:1018D800FFF7D8F838B9FFF7E3FF30B9FFF7FEF89C
:1018E800F9E7012010BD002010BDFFF7D9FF002047
:1018F800FEF768FF003018BF012010BD08B5FFF7DC
:10190800DCFFBDE80840FEF755BF0000024B1A682F
:10191800024B1A60704700BF040400200C05002029
:10192800704741747047007CFFF744B8007CFFF7AC
:1019380019B8007CFFF726B8007CFFF71BB8007CBD
:10194800FFF728B810B50446FEF7A5FB204610BDE2
:1019580070B5457C04460E4625B9007CFFF72AF889
:10196800002805DD3146207CBDE87040FEF7F2BF57
:10197800284670BD10B5044608461146002262602C
:101988004FF47A72A260054A2074226001226274C0
:101998001A46FEF7D7FF204610BD00BF1C340808C2
:1019A800007CFEF7FFBF000038B50C4D296811F028
:1019B800010411D12846FEF770FB68B1084A214698
:1019C800084B0948FFF7D6FF2846FEF76BFB074A86
:1019D8000749054800F06AFA034838BDA805002001
:1019E800AC05002024050020100500206C04002010
:1019F800291908084174704770470021007CFEF7D8
:101A0800F9BF0121007CFEF7F5BF007CFEF7EABFB5
:101A1800007CFEF7DFBF38B50446007C0D46FEF7B4
:101A2800E1FF002801DC607C20B12946207CFEF71C
:101A3800E9FF012038BD007CFEF7ECBF10B5044675
:101A4800FEF729FB204610BD10B50446002363604D
:101A58004FF47A73A360054B084623600123217471
:101A680063741146FEF7AEFF204610BD4C340808DB
:101A780010B504461422002101F047FA054B204610
:101A88006360054BE36040F20113238181232382C5
:101A980010BD00BFB50600203406002030B50E4D3D
:101AA80087B001A8FFF7E4FF296811F0010410D1FD
:101AB8002846FEF7F2FA60B101AA21460748FFF767
:101AC800C3FF2846FEF7EEFA054A0649034800F028
:101AD800EDF9024807B030BD30060020B8070020F5
:101AE8006C040020011A080810B5044614220021CD
:101AF80001F00BFA054B20466360054BE36040F2AA
:101B0800011323818123238210BD00BF68080020B0
:101B1800D007002010B50E4C86B001A8FFF7E4FFEF
:101B28002368DB0710D42046FEF7B7FA60B101AA94
:101B380001210848FFF788FF2046FEF7B3FA064A56
:101B48000649044800F0B2F9024806B010BD00BFCB
:101B5800CC070020540800206C040020011A080853
:101B680008B5184B33B1FFF799FF03681B6998470D
:101B780000281EDC144B33B1FFF716FF03681B69FE
:101B88009847002818DC114B0BB1AFF30080104BBD
:101B98000BB1AFF300800F4B0BB1AFF300800E4BCE
:101BA8007BB1FFF7B7FF03681B699847002806DC7D
:101BB80008BDAFF30080DDE7AFF30080E3E7AFF3E4
:101BC800008008BD000000000000000000000000C8
:101BD80000000000000000000000000008B5FFF74A
:101BE800BFFFFEF7DFFD014B186008BD7409002038
:101BF8000248034A0349121A01F07CB90040024026
:101C0800044002402035080807B5002300931A460F
:101C18006FF07701FEF748FF03B05DF804FB0000A2
:101C280007B543880A2B08D0502B09D1094B1B68EC
:101C38003BB103B05DF804EB1847FFF7E5FF06E09A
:101C4800002300931A466FF07701FEF72DFF03B0CB
:101C58005DF804FB6C09002038B5104C104D236862
:101C6800AB42104B0CBF012200221A7002D0FFF7C2
:101C7800BFFF2560FEF78EFD044601F04FF90A4BC1
:101C880013B12046AFF3008000210748FEF74EFF4E
:101C9800BDE8384000210548FEF7FCBE0040024080
:101CA8001E1C279A7009002000000000291C080843
:101CB80010B504460F48FFF75DFD28B1A4F10D03E8
:101CC800022B01D8002010BD00F06AF8FFF7E5FBF1
:101CD80008B1012CF6D9FFF767FEFFF761FE18B1CE
:101CE800A4F11203012BEDD92E2C8CBF002001206A
:101CF80010BD00BFB00900202E2838B504460D4697
:101D08000AD8FF2908D0FFF7D3FF28B12946204673
:101D1800BDE83840FEF776BD38BD38B504460D46F7
:101D2800FEF778FDFF2810D0062804D84D2323FAA3
:101D380000F0C30709D42046FFF7BAFF28B12946A7
:101D48002046BDE83840FEF76DBD38BD10B50446E5
:101D5800FEF760FD0438C0B2012808D92046FFF715
:101D6800A7FF20B12046BDE81040FEF763BD002064
:101D780010BD10B5044609289CBF0A34A4B22046F9
:101D8800FFF796FF50B103212046FEF733FD0328E5
:101D980004D12046BDE81040FEF754BD002010BD18
:101DA80038B50B4D296811F001040FD12846FEF70C
:101DB80074F958B121460748FFF738FB2846FEF763
:101DC80071F9054A0549034800F070F8014838BD23
:101DD80078090020900900206C040020DD13080811
:101DE80010B50B4C2368DB070FD42046FEF755F9D6
:101DF80058B102210748FFF719FB2046FEF752F9B0
:101E0800054A0649034800F051F8024810BD00BFD2
:101E1800A40900207C0900206C040020DD130808B8
:101E280013B5084C00231A46194600932046FFF7BD
:101E38008DFB2046044A054902B0BDE8104000F079
:101E480035B800BFA80900206C040020CF1408088A
:101E580070B5114E114D124C00213046FFF776FC3B
:101E68003046104E2A46214600F020F8012130461F
:101E7800FFF76CFC30460C4E2A46214600F016F857
:101E880002213046FFF762FC2A4621463046BDE86B
:101E9800704000F00BB800BFB00900206C040020AF
:101EA80045170808C0090020D00900200B46014644
:101EB800184601F011B808B5FEF7B0FE244B1A68B1
:101EC800D0075CBF01221A60224B1A68D1075CBF99
:101ED80001221A60204B1A68D2075CBF01221A60DF
:101EE8001E4B1A68D0075CBF01221A601C4B1A6887
:101EF800D1075CBF01221A601A4B1A68D2075CBF6F
:101F080001221A60184B1A68D0075CBF01221A60B8
:101F1800164B1A68D1075CBF01221A60144B1A6865
:101F2800D2075CBF01221A60124B1A68D0075CBF47
:101F380001221A60104B1A68D1075CBF01221A608F
:101F48000E4B1A68D2075CBF01221A60704700BFA7
:101F58000C0A0020080A0020040A0020000A0020B9
:101F6800FC090020F8090020F4090020F0090020ED
:101F7800EC090020E8090020E4090020E00900201D
:101F8800184B1A68D1075CBF01221A60164B1A68F1
:101F9800D2075CBF01221A60144B1A68D0075CBFD5
:101FA80001221A60124B1A68D1075CBF01221A601D
:101FB800104B1A68D2075CBF01221A600E4B1A68D0
:101FC800D0075CBF01221A600C4B1A68D1075CBFAE
:101FD80001221A600A4B1A68D2075CBF01221A60F4
:101FE800704700BF2C0A0020280A0020240A00207D
:101FF800200A00201C0A0020180A0020140A0020C9
:10200800100A0020184B1A68D1075CBF01221A6019
:10201800164B1A68D2075CBF01221A60144B1A6863
:10202800D0075CBF01221A60124B1A68D1075CBF47
:1020380001221A60104B1A68D2075CBF01221A608D
:102048000E4B1A68D0075CBF01221A600C4B1A6845
:10205800D1075CBF01221A600A4B1A68D2075CBF1D
:1020680001221A60704700BF4C0A0020480A00206D
:10207800440A0020400A00203C0A0020380A0020B8
:10208800340A0020300A0020244B1A68D0075CBFAD
:1020980001221A60224B1A68D1075CBF01221A601C
:1020A800204B1A68D2075CBF01221A601E4B1A68BF
:1020B800D0075CBF01221A601C4B1A68D1075CBFAD
:1020C80001221A601A4B1A68D2075CBF01221A60F3
:1020D800184B1A68D0075CBF01221A60164B1A68A1
:1020E800D1075CBF01221A60144B1A68D2075CBF83
:1020F80001221A60124B1A68D0075CBF01221A60CD
:10210800104B1A68D1075CBF01221A600E4B1A687F
:10211800D2075CBF01221A60704700BF7C0A00200A
:10212800780A0020740A0020700A00206C0A002037
:10213800680A0020640A0020600A00205C0A002067
:10214800580A0020540A0020500A002081F000415B
:1021580002E000BF83F0004330B54FEA41044FEA84
:10216800430594EA050F08BF90EA020F1FBF54EA1F
:10217800000C55EA020C7FEA645C7FEA655C00F0BB
:10218800E2804FEA5454D4EB5555B8BF6D420CDD8C
:102198002C4480EA020281EA030382EA000083EA0F
:1021A800010180EA020281EA0303362D88BF30BDAF
:1021B80011F0004F4FEA01314FF4801C4CEA113105
:1021C80002D0404261EB410113F0004F4FEA033364
:1021D8004CEA133302D0524263EB430394EA050FEF
:1021E80000F0A780A4F10104D5F1200E0DDB02FA5E
:1021F8000EFC22FA05F2801841F1000103FA0EF2F2
:10220800801843FA05F359410EE0A5F120050EF1B7
:10221800200E012A03FA0EFC28BF4CF0020C43FAE8
:1022280005F3C01851EBE37101F0004507D54FF0F5
:10223800000EDCF1000C7EEB00006EEB0101B1F545
:10224800801F1BD3B1F5001F0CD349085FEA30008B
:102258004FEA3C0C04F101044FEA445212F5800F96
:1022680080F09A80BCF1004F08BF5FEA500C50F133
:10227800000041EB045141EA050130BD5FEA4C0C16
:10228800404141EB010111F4801FA4F10104E9D19F
:1022980091F0000F04BF01460020B1FA81F308BF96
:1022A8002033A3F10B03B3F120020CDA0C3208DD62
:1022B80002F1140CC2F10C0201FA0CF021FA02F13D
:1022C8000CE002F11402D8BFC2F1200C01FA02F1AD
:1022D80020FA0CFCDCBF41EA0C019040E41AA2BFD2
:1022E80001EB0451294330BD6FEA04041F3C1CDA9A
:1022F8000C340EDC04F11404C4F1200220FA04F0BA
:1023080001FA02F340EA030021FA04F345EA030163
:1023180030BDC4F10C04C4F1200220FA02F001FA25
:1023280004F340EA0300294630BD21FA04F02946A7
:1023380030BD94F0000F83F4801306BF81F4801140
:102348000134013D4EE77FEA645C18BF7FEA655CB3
:1023580029D094EA050F08BF90EA020F05D054EA85
:10236800000C04BF1946104630BD91EA030F1EBF8A
:102378000021002030BD5FEA545C05D1400049418E
:1023880028BF41F0004130BD14F580043CBF01F581
:10239800801130BD01F0004545F0FE4141F4700167
:1023A8004FF0000030BD7FEA645C1ABF1946104642
:1023B8007FEA655C1CBF0B46024650EA013406BF43
:1023C80052EA033591EA030F41F4002130BD00BF02
:1023D80090F0000F04BF0021704730B54FF48064BF
:1023E80004F132044FF000054FF0000150E700BF40
:1023F80090F0000F04BF0021704730B54FF480649F
:1024080004F1320410F0004548BF40424FF000018B
:102418003EE700BF42004FEAE2014FEA31014FEACE
:1024280002701FBF12F07F4393F07F4F81F060511D
:10243800704792F0000F14BF93F07F4F704730B58C
:102448004FF4607401F0004521F0004120E700BF1F
:1024580050EA010208BF704730B54FF000050AE0A6
:1024680050EA010208BF704730B511F0004502D5A7
:10247800404261EB41014FF4806404F132045FEAA9
:10248800915C3FF4DCAE4FF003025FEADC0C18BF4E
:1024980003325FEADC0C18BF033202EBDC02C2F144
:1024A800200300FA03FC20FA02F001FA03FE40EAD6
:1024B8000E0021FA02F11444C1E600BF70B54FF0D6
:1024C800FF0C4CF4E06C1CEA11541DBF1CEA1355B8
:1024D80094EA0C0F95EA0C0F00F0DEF82C4481EA20
:1024E800030621EA4C5123EA4C5350EA013518BF40
:1024F80052EA033541F4801143F4801338D0A0FB2D
:1025080002CE4FF00005E1FB02E506F00042E0FBD9
:1025180003E54FF00006E1FB03569CF0000F18BFDF
:102528004EF0010EA4F1FF04B6F5007F64F5407487
:1025380004D25FEA4E0E6D4146EB060642EAC6211A
:1025480041EA55514FEAC52040EA5E504FEACE2E87
:10255800B4F1FD0C88BFBCF5E06F1ED8BEF1004F8A
:1025680008BF5FEA500E50F1000041EB045170BD06
:1025780006F0004646EA010140EA020081EA03014A
:10258800B4EB5C04C2BFD4EB0C0541EA045170BD46
:1025980041F480114FF0000E013C00F3AB8014F1C0
:1025A800360FDEBF002001F0004170BDC4F1000409
:1025B800203C35DA0C341BDC04F11404C4F120058A
:1025C80000FA05F320FA04F001FA05F240EA0200E5
:1025D80001F0004221F0004110EBD37021FA04F61B
:1025E80042EB06015EEA430E08BF20EAD37070BDD5
:1025F800C4F10C04C4F1200500FA04F320FA05F034
:1026080001FA04F240EA020001F0004110EBD37035
:1026180041F100015EEA430E08BF20EAD37070BDA5
:10262800C4F1200500FA05F24EEA020E20FA04F37E
:1026380001FA05F243EA020321FA04F001F000412D
:1026480021FA04F220EA020000EBD3705EEA430E9E
:1026580008BF20EAD37070BD94F0000F0FD101F0CD
:102668000046400041EB010111F4801F08BF013C06
:10267800F7D041EA060195F0000F18BF704703F044
:102688000046520043EB030313F4801F08BF013DCB
:10269800F7D043EA0603704794EA0C0F0CEA135587
:1026A80018BF95EA0C0F0CD050EA410618BF52EA41
:1026B8004306D1D181EA030101F000414FF0000047
:1026C80070BD50EA410606BF1046194652EA430655
:1026D80019D094EA0C0F02D150EA013613D195EAC9
:1026E8000C0F05D152EA03361CBF104619460AD111
:1026F80081EA030101F0004141F0FE4141F470011B
:102708004FF0000070BD41F0FE4141F4780170BD0A
:1027180070B54FF0FF0C4CF4E06C1CEA11541DBF6F
:102728001CEA135594EA0C0F95EA0C0F00F0A7F871
:10273800A4EB050481EA030E52EA03354FEA01319E
:1027480000F088804FEA03334FF0805545EA1313B1
:1027580043EA12634FEA022245EA111545EA106579
:102768004FEA00260EF000419D4208BF964244F110
:10277800FD0404F5407402D25B084FEA3202B61A2F
:1027880065EB03055B084FEA32024FF480104FF403
:10279800002CB6EB020E75EB030E22BFB61A754677
:1027A80040EA0C005B084FEA3202B6EB020E75EB0A
:1027B800030E22BFB61A754640EA5C005B084FEA72
:1027C8003202B6EB020E75EB030E22BFB61A75463F
:1027D80040EA9C005B084FEA3202B6EB020E75EB4A
:1027E800030E22BFB61A754640EADC0055EA060E0B
:1027F80018D04FEA051545EA16754FEA06164FEA4E
:10280800C30343EA52734FEAC2025FEA1C1CC0D1F9
:1028180011F4801F0BD141EA00014FF000004FF086
:10282800004CB6E711F4801F04BF01430020B4F147
:10283800FD0C88BFBCF5E06F3FF6AFAEB5EB030CFF
:1028480004BFB6EB020C5FEA500C50F1000041EBFC
:10285800045170BD0EF0004E4EEA113114EB5C04C9
:10286800C2BFD4EB0C0541EA045170BD41F480119C
:102878004FF0000E013C90E645EA060E8DE60CEAA4
:10288800135594EA0C0F08BF95EA0C0F3FF43BAFC1
:1028980094EA0C0F0AD150EA01347FF434AF95EA78
:1028A8000C0F7FF425AF104619462CE795EA0C0F5C
:1028B80006D152EA03353FF4FDAE1046194622E729
:1028C80050EA410618BF52EA43067FF4C5AE50EA03
:1028D80041047FF40DAF52EA43057FF4EBAE12E7F3
:1028E8004FEA410212F5001215D211D56FF4787330
:1028F800B3EB625212D94FEAC12343F0004343EAD3
:10290800505311F0004F23FA02F018BF40427047AD
:102918004FF00000704750EA013005D111F0004037
:1029280008BF6FF0004070474FF00000704700BFCD
:102938004FEA4102B2F1E04324BFB3F5001CDCF1D9
:10294800FE5C0DD901F0004C4FEAC0024CEA507011
:10295800B2F1004F40EB830008BF20F00100704740
:1029680011F0804F21D113F13872BCBF01F0004043
:10297800704741F480114FEA5252C2F11802C2F175
:10298800200C10FA0CF320FA02F018BF40F00100F6
:102998004FEAC1234FEAD32303FA0CFC40EA0C00A8
:1029A80023FA02F34FEA4303CCE77FEA625307D1E5
:1029B80050EA01331EBF4FF0FE4040F4400070471C
:1029C80001F0004040F0FE4040F40000704700BFB6
:1029D80080F0004002E000BF81F0004142001FBFCC
:1029E8005FEA410392EA030F7FEA226C7FEA236CD5
:1029F8006AD04FEA1262D2EB1363C1BFD2184140CA
:102A080048404140B8BF5B42192B88BF704710F05F
:102A1800004F40F4000020F07F4018BF404211F002
:102A2800004F41F4000121F07F4118BF494292EA6A
:102A3800030F3FD0A2F1010241FA03FC10EB0C0096
:102A4800C3F1200301FA03F100F0004302D5494223
:102A580060EB4000B0F5000F13D3B0F1807F06D3D0
:102A680040084FEA310102F10102FE2A51D2B1F1C8
:102A7800004F40EBC25008BF20F0010040EA0300BD
:102A88007047490040EB000010F4000FA2F101026A
:102A9800EDD1B0FA80FCACF1080CB2EB0C0200FAF4
:102AA8000CF0AABF00EBC25052421843BCBFD04042
:102AB8001843704792F0000F81F4000106BF80F4BC
:102AC80000000132013BB5E74FEA41037FEA226C7F
:102AD80018BF7FEA236C21D092EA030F04D092F04A
:102AE800000F08BF0846704790EA010F1CBF00207E
:102AF800704712F07F4F04D1400028BF40F00040DB
:102B0800704712F100723CBF00F50000704700F0FA
:102B1800004343F0FE4040F4000070477FEA226221
:102B280016BF08467FEA23630146420206BF5FEAF2
:102B3800412390EA010F40F4800070474FF00003F2
:102B480004E000BF10F0004348BF40425FEA000CB9
:102B580008BF704743F0964301464FF000001CE061
:102B680050EA010208BF70474FF000030AE000BFB7
:102B780050EA010208BF704711F0004302D54042F5
:102B880061EB41015FEA010C02BF84460146002067
:102B980043F0B64308BFA3F18053A3F50003BCFA82
:102BA8008CF2083AA3EBC25310DB01FA02FC63442F
:102BB80000FA02FCC2F12002BCF1004F20FA02F236
:102BC80043EB020008BF20F00100704702F1200229
:102BD80001FA02FCC2F1200250EA4C0021FA02F28A
:102BE80043EB020008BF20EADC7070474FF0FF0C8F
:102BF8001CEAD0521EBF1CEAD15392EA0C0F93EA8A
:102C08000C0F6FD01A4480EA010C400218BF5FEA2B
:102C180041211ED04FF0006343EA501043EA51119E
:102C2800A0FB01310CF00040B1F5000F3EBF490098
:102C380041EAD3715B0040EA010062F17F02FD2A9C
:102C48001DD8B3F1004F40EBC25008BF20F001007F
:102C5800704790F0000F0CF0004C08BF49024CEA96
:102C6800502040EA51207F3AC2BFD2F1FF0340EA28
:102C7800C250704740F400004FF00003013A5DDC99
:102C880012F1190FDCBF00F000407047C2F10002DA
:102C9800410021FA02F1C2F1200200FA02FC5FEAC7
:102CA800310040F1000053EA4C0308BF20EADC7011
:102CB800704792F0000F00F0004C02BF400010F483
:102CC800000F013AF9D040EA0C0093F0000F01F030
:102CD800004C02BF490011F4000F013BF9D041EA52
:102CE8000C018FE70CEAD15392EA0C0F18BF93EA54
:102CF8000C0F0AD030F0004C18BF31F0004CD8D17E
:102D080080EA010000F00040704790F0000F17BF04
:102D180090F0004F084691F0000F91F0004F14D04A
:102D280092EA0C0F01D142020FD193EA0C0F03D1A2
:102D38004B0218BF084608D180EA010000F00040A5
:102D480040F0FE4040F40000704740F0FE4040F480
:102D5800400070474FF0FF0C1CEAD0521EBF1CEA1F
:102D6800D15392EA0C0F93EA0C0F69D0A2EB03023D
:102D780080EA010C49024FEA402037D04FF08053D7
:102D880043EA111143EA10130CF000408B4238BF9C
:102D98005B0042F17D024FF4000C8B4224BF5B1AAA
:102DA80040EA0C00B3EB510F24BFA3EB510340EAF8
:102DB8005C00B3EB910F24BFA3EB910340EA9C00A6
:102DC800B3EBD10F24BFA3EBD10340EADC001B0116
:102DD80018BF5FEA1C1CE0D1FD2A3FF650AF8B42BA
:102DE80040EBC25008BF20F0010070470CF0004CC7
:102DF8004CEA50207F32C2BFD2F1FF0340EAC250F2
:102E0800704740F400004FF00003013A37E792F0B2
:102E1800000F00F0004C02BF400010F4000F013A10
:102E2800F9D040EA0C0093F0000F01F0004C02BF0B
:102E3800490011F4000F013BF9D041EA0C0195E774
:102E48000CEAD15392EA0C0F08D142027FF47DAF0D
:102E580093EA0C0F7FF470AF084676E793EA0C0FFD
:102E680004D14B023FF44CAF08466EE730F0004CFB
:102E780018BF31F0004CCAD130F000427FF45CAF8B
:102E880031F000437FF43CAF5FE700BF4FEA4002F8
:102E9800B2F1FE4F0FD34FF09E03B3EB12620DD980
:102EA8004FEA002343F0004310F0004F23FA02F0EA
:102EB80018BF404270474FF00000704712F1610F91
:102EC80001D1420205D110F0004008BF6FF0004068
:102ED80070474FF00000704710B5054C13462CB1F1
:102EE8000A4601460220AFF3008010BD204610BDFF
:102EF8000000000010B5431E0A44914204D011F8A6
:102F0800014B03F8014FF8E710BD03460244934212
:102F180002D003F8011BFAE77047000038B5124BDE
:102F280005461C68A36BD3B91820FDF757FE43F27A
:102F38000E33A06303804AF6CD33438041F2342335
:102F480083804EF26D63C3804DF6EC6303810523E5
:102F580043810B23838101220023C0E90423A36B4F
:102F680000221D615A6138BD6804002010F8012B49
:102F780011F8013B012A28BF9A42F7D0D01A7047AE
:102F8800024B0146186800F003B800BF680400202F
:102F980070B5064608460C4600F00DF8451C294653
:102FA8003046FDF743FE064618B12A462146FFF78C
:102FB800A1FF304670BD034613F8012B002AFBD150
:102FC800181A0138704700001D0008085D0008083D
:102FD800890008088D00080800000000302E3232F1
:102FE8000000526573657474696E67204D656D6F76
:102FF80072790032352520646F6E650035302520E2
:10300800646F6E650037352520646F6E6500446F08
:103018006E650052656C65617365007374617465F3
:103028004F6643686700486172645265736574004F
:1030380054657374204661696C6564526573657480
:103048002044657669636520746F20436F6E7469E8
:103058006E756500426567696E6E696E67205465B6
:1030680073742052756E00546573742053746172C2
:1030780074004661696C6564202D204D697373691D
:103088006E67204652414D00546573742023310009
:10309800496E2070726F63657373202D20457261CD
:1030A80073696E67204652414D004661696C6564DC
:1030B800202D204652414D20526561642045727290
:1030C8006F72004652414D205465737420506173ED
:1030D8007365640054656D706572617475726520FE
:1030E80069732025694600546573742023320050A3
:1030F80072657373205573657220537769746368BA
:103108000054657374202333005573657220537718
:1031180069746368205072657373204465746563CD
:1031280074656400426174746572792063686172C1
:103138006765206C6576656C203D202569005465BF
:103148007374202334004261747465727920636853
:103158006172676520746573742070617373656448
:1031680000546573742023350045787065637420B6
:1031780074686973207465737420746F2074616B4C
:1031880065207E3630206D696E75746573005465F0
:103198007374202336205374617274656400456C1F
:1031A80061707365642074696D6520696E206D694E
:1031B8006E7574657320697320256900546573748E
:1031C8002023362046696E69736865640046696E17
:1031D800616C2054657374202D20486172642052FC
:1031E8006573657420696E2031207365636F6E6442
:1031F800005465737420233700496620796F752061
:103208007365652074686973206D6573736167659C
:10321800202D20686172642072657365742074655E
:103228007374206661696C6564000000000000002A
:1032380000000000130D0808090D0808FF0C080815
:10324800710C0808F30C0808E70C0808DB0C0808E0
:10325800D30C0808C90C0808BF0C08087B0C080820
:1032680000000000000000005D0D0808630D08085C
:103278008B0D08086F0D08085F0D08080000000096
:1032880000000000DD13080827140808FF130808C9
:10329800DF130808071408080F140808171408088B
:1032A8001F1408080000000000000000DD140808D2
:1032B800CF140808D114080866006C6E00666E000A
:1032C800636F64650064657461696C000D0A0025AC
:1032D8003031307520005D20002564002C20002846
:1032E800293A2000205B00636F6465203D2000645C
:1032F800657461696C73203D2000626175640053D8
:10330800657269616C0055534253657269616C312D
:10331800007479706500706172616D00636D64009E
:10332800696400686E64007374726D0066696C7419
:10333800006C766C0061646448616E646C65720050
:1033480072656D6F766548616E646C657200656E56
:10335800756D48616E646C657273004A534F4E53C5
:10336800747265616D4C6F6748616E646C6572005C
:10337800617070006E6F6E650074726163650069DC
:103388006E666F007761726E006572726F720070A0
:10339800616E696300616C6C000000000000000051
:1033A800000000007D150808871508089115080811
:1033B8009B150808A5150808B1150808BD150808C3
:1033C800C9150808D1150808DB150808E515080807
:1033D800000000000000000045170808471708080B
:1033E8005A00252B3033643A253032750025592D83
:1033F800256D2D25645425483A254D3A2553257ABF
:103408000061736374696D650000000000000000CE
:1034180000000000291908084D190808591908085A
:103428004516080835190808411908083B190808FD
:10343800471908082B1908082F1908080000000068
:1034480000000000011A0808451A08081F1A080891
:1034580045160808191A0808031A08080B1A080854
:103468003F1A0808131A0808FD1908080000000088
:103478000000000000000000000000000000000044
:103488000000000000000000000000000000000034
:103498000000000000000000000000000000000024
:1034A8000000000000000000000000000000000014
:1034B8000000000000000000000000000000000004
:1034C80000000000000000000000000043000000B1
:1034D8005501080831070808790708081D0D08086C
:1034E8006D150808311608082917080891180808E2
:1034F80015190808291E0808591E0808C51E0808B5
:10350800891F08080D2008089120080800000000FD
:083518000000000000000000AB
:0435200000000000A7
:1035240060EA000009340808000000007434080848
:1035340094340808B43408080000000000000000B7
:103544000000000000000000D4340808000000005F
:103554000000000000000000000000000000000067
:103564000000000000000000000000000000000057
:103574000000000000000000000000000000000047
:0C3584000000000000000000080400200F
:10359000FFFFFFFF00000102030405060708090AF8
:1035A0000B0C0D0E0F101112131415161718191AF3
:0835B0001B1C1D1E1F2028003A
:0435B80078563412FB
:0400000508080018CF
:00000001FF
