:020000040808EA
:1000000000000808E8390808000006000A00050199
:0800100004024E040000000090
:10001800A433080809480A4908B5884205D0094A9E
:10002800824202D0121A03F04FF90748074A00210A
:10003800121A03F054F9064808BD00BF0004002056
:10004800543908086C0400206C040020980A002029
:10005800980A002070B501F0E9FF074B074C1E46CF
:10006800E41AA4080025A54204D056F8253098477C
:100078000135F8E770BD00BF0C3908084839080891
:1000880000F0EAB808B500F0E9F9BDE8084001F069
:100098008FBF00F05DBF00F063BF0078B0FA80F05A
:1000A800400970470123037070470368C9B29B6811
:1000B800184700224270704708B5017002F05AF8DC
:1000C80001F080FB012008BD70B506460C461546B8
:1000D80002F050F8317801F091FB02F04BF8210A58
:1000E800FFF7E3FF02F046F8E1B2FFF7DEFF02F0A8
:1000F80041F8036829469B68984702F03BF8BDE839
:10010800704001F086BB38B504460D4602F032F85F
:10011800217801F073FB02F02DF8290AFFF7C5FFDB
:1001280002F028F8E9B2FFF7C0FF02F023F801F067
:1001380070FB02F01FF80122217801F052FB02F057
:1001480019F803685B699847C0B238BD00F0F4BC81
:1001580008B5064B01210620197001F0C8FFBDE85B
:1001680008400021062001F0C2BF00BF980400200B
:1001780008B5054901F05FFD20B10420012101F017
:10018800B6FF012008BD00BF6A34080837B5054628
:100198009DF8184023438DF800303C2301F000F906
:1001A800284603B030BD000008B500F0A5FC034B9D
:1001B8001860BDE8084000F04BBE00BF8C09002065
:1001C80081B20148FFF79FBF8D0400200A4681B223
:1001D8000148FFF779BF00BF8D04002010B501F07A
:1001E80047FE184901F049FC042400212046FFF786
:1001F800EDFFB4F5005F03D101F03AFE124914E0B7
:10020800B4F5804F03D101F033FE10490DE0B4F589
:10021800C04F03D101F02CFE0D4906E047F6FF73ED
:100228009C4204D101F024FE0A4901F026FC013465
:10023800B4F5004FD9D107210020BDE81040FFF7E1
:10024800C5BF00BFBE330808CF330808D833080835
:10025800E1330808EA330808F7B50021022001F065
:1002680035FF0021052001F031FF0021112001F0A8
:100278002DFF0121072001F029FF01211D2001F098
:1002880025FF01211D2001F032FF0121062001F088
:100298001DFF0121062001F02AFF0021062001F0A0
:1002A80026FF0121042001F011FF00230422214927
:1002B800214800F0BDFD002302222049204800F01B
:1002C800B7FD204A2049214800F04AFF0023009347
:1002D80001224FF0FF331E49112001F0B5FA00F05A
:1002E800C7FD0446E0B900F0BBFD204600F01CFC49
:1002F8000446184E00250027002000F015FC001BBE
:1003080061EB05018F4208BF864205D300F0B0FDBE
:1003180010B900F09DFDEFE700F0AAFDFFF744FFDC
:100328000D4801F0EDF902F09BFF044B186003B093
:10033800F0BD00BFB8330808EF330808A004002058
:10034800F733080802340808790108083D1108083D
:10035800590108088F5F0100900400200000000088
:1003680008B50A2001F0EFFE02F02CFA14A3D3E935
:10037800002302F08DFA02F0C5FC4FF0665102F03E
:100388001FFE02F031FA00220F4B02F0CDF80022D6
:100398000E4B02F07DFA02F08DFC02F013FA0022F7
:1003A8000B4B02F075FA00220A4B02F09BFB00226D
:1003B800094B02F0BBF802F07DFC084B186008BD41
:1003C8006666666666660A400000E03F00005940BF
:1003D800000022400000144000004040700400204B
:1003E80038B5046805467CB16368013B63605BB956
:1003F800236820469B689847A368013BA3601BB904
:1004080023682046DB689847284638BD1FB54FF457
:100418007A7000F0CDFD0F4B00221B7802A88DF8F2
:1004280000200D49FFF7B2FE03A8FFF7D9FF01210D
:10043800072001F05CFE4FF4FA6000F0B9FD0021DE
:10044800072001F054FE4FF4FA6000F0B1FDFFF709
:10045800ABFEECE78C0400200C340808F0B59E4C89
:1004680099B000259D4923789D4A08A88DF8005029
:10047800FFF78CFE09A8FFF7B3FF4FF47A7000F07E
:1004880097FDFFF791FE50219648FFF715FE58B9E2
:100498008DF80000237808A8934A9449FFF776FE60
:1004A80009A8FFF79DFF11E02846FFF789FE0728F6
:1004B8000CD023788E4A8D4908A88DF80050FFF794
:1004C80065FE09A8FFF78CFFFFF788FE4FF47A70E6
:1004D80000F06EFDFFF768FE0020FFF771FE0022B6
:1004E80007288DF80020237814BF824A824A7F4962
:1004F80008A8FFF74BFE09A8FFF772FF4FF47A70C0
:1005080000F056FDFFF750FEFFF72AFF00250346CF
:100518007A4A402108A800F033FD237808AA7849D0
:1005280006A88DF80050FFF731FE07A8FFF758FF1F
:100538004FF47A7000F03CFDFFF736FE2378714ADD
:10054800714906A88DF80050FFF720FE07A8FFF7AD
:1005580047FF4FF47A7000F02BFD052001F0E0FD15
:10056800054610B1FFF720FEF7E72378674A66498A
:100578008DF8000006A8FFF709FE07A8FFF730FF6F
:100588004FF47A7000F014FDFFF70EFE2378604AEE
:1005980060498DF8005006A8FFF7F8FD07A8FFF797
:1005A8001FFF00F0A9FA0546072202215A4800F069
:1005B800EDF905F5EA453035574800F090F9564E03
:1005C80020B1304600F032FAFFF7EEFD00F094FA61
:1005D800A842F1D9306902F007F9CDE90401F068C1
:1005E80002F002F9CDE90201B06802F0FDF84B4AC9
:1005F800CDE90001402108A800F0C2FC00222378C0
:1006080044498DF8002006A808AAFFF7BFFD07A8EF
:10061800FFF7E6FE4FF47A7000F0CAFCFFF7C4FD5E
:100628003F4F404E404D00F067FA33683A68134434
:1006380098421CD33D4801F063F802F011FE3C4A91
:1006480003462860402108A800F09AFC002223787D
:1006580038498DF8002006A808AAFFF797FD07A8D3
:10066800FFF7BEFEFFF7A0FD00F046FA30602B68EA
:10067800412BD8DD002723782F4A304906A88DF86A
:100688000070FFF783FD07A8FFF7AAFE01F020FB23
:100698002B4D0646FFF75CFD2F7000F0E9FB58B1C3
:1006A8000D4B06A81B78274A8DF800702649FFF7DE
:1006B8006DFD07A8FFF794FE4FF47A7000F078FC00
:1006C800FFF772FD2B78002B40D1FFF76DFD4FF43B
:1006D8007A7000F06DFCF5E78C04002043340808BC
:1006E800303408088D0400204E34080864340808A3
:1006F8006C340808863408089F340808B0340808A1
:10070800C3340808CB340808DD340808E534080881
:100718000035080829350808740400203135080810
:10072800000400209C040020A00400209004002065
:10073800633508087D35080885350808A035080898
:1007480098040020A8350808CD35080801F0C0FA3B
:100758003C23801B90FBF3F31E4A402108A800F0BD
:100768000FFC00F085FB58B100228DF8002006A888
:10077800237808AA1849FFF709FD07A8FFF730FEF4
:100788004FF47A70002500F013FCFFF70DFD237875
:10079800124A134906A88DF80050FFF7F7FC07A87E
:1007A800FFF71EFE4FF47A7000F002FCFFF7FCFC26
:1007B8000121042001F09BFC23780A4A084906A875
:1007C8008DF80050FFF7E2FC07A8FFF709FEFFF7D6
:1007D8001DFE00BFDD350808FB3508080C36080883
:1007E80030360808383608080E4B10B501241C703E
:1007F80000F0A2F91D210C4800F020F80B48FFF783
:1008080058FC20460A4C002100F0DEFA0021204660
:1008180000F036FF2046BDE81040064A064901F0C0
:100828002FBD00BF8C040020740400208D0400201C
:10083800900400206C040020A71608080175704772
:10084800F8B507460C4615461E4601F093FC397D5F
:1008580000F0D4FF01F08EFC2146FFF726FC2C4661
:10086800631B9E4207DD01F085FC036814F8011B39
:100878009B689847F4E701F07DFCBDE8F84000F07C
:10088800C8BF13B502AC04F8012D01232246FFF7B7
:10089800D7FF02B010BD38B504460D4601F06AFC1A
:1008A800217D00F0ABFF01F065FC2946FFF7FDFB59
:1008B80001F060FC002100F0A8FF08B1002038BD5D
:1008C80001F058FC0122217D00F08EFF0128F5D1AE
:1008D80001F050FC03685B699847C0B238BD08B5A1
:1008E8000021FFF7D8FFC0F3C00008BD38B50D469A
:1008F8000E210446FFF7CFFF20F0030040EA9502DF
:10090800D2B22046BDE838400E21FFF7BABF38B54D
:100918000D462A210446FFF7BEFF20F0300040EACA
:10092800C502D2B22046BDE838402A21FFF7A9BF48
:1009380010B511210446FFF7AEFF40F04002D2B2D5
:1009480020461121FFF79DFF2046BDE810405022A8
:100958001221FFF796BF10B52A210446FFF79BFF27
:100968002A2100F0FE022046BDE81040FFF789BFAB
:1009780010B52A210446FFF78EFF40F00102D2B2DB
:100988002046BDE810402A21FFF77BBF38B5044652
:100998004175154601F0EEFB00F014FF0D212046CD
:1009A800FFF779FF2A2812D12046FFF7D4FF617D8F
:1009B8002046FFF79BFF29462046FFF7A8FF204661
:1009C800FFF7B6FF2046FFF7D3FF012038BD002010
:1009D80038BDF8B504460F4616461D4601F0CAFB59
:1009E800217D00F00BFF01F0C5FB3946FFF75DFBE9
:1009F80001F0C0FB002100F008FF98B901F0BAFB34
:100A08002A46217D00F0EDFE85420BD13446A31B1A
:100A1800AB4209DA01F0AEFB03685B69984704F85A
:100A2800010BF4E70020F8BD0120F8BD2DE9F341E2
:100A380004466A4601210623FFF7CBFF9DF80130E3
:100A48009DF800709DF8026043EA07279DF803307F
:100A58009DF8045043EA06269DF8053047F30B1726
:100A680043EA052546F30B1645F30B1527806680E8
:100A7800A580607D02F04CFA8046384602F04CFAB8
:100A88004FF0685102F09CFA414602F099FAA060D2
:100A9800304602F041FA4FF0685102F091FA4146AF
:100AA80002F08EFAE060284602F036FA4FF06851FC
:100AB80002F086FA414602F083FA206102B0BDE8EE
:100AC800F08100F039B8000008B5024B1B68DB6BF9
:100AD800019308BD2000060808B5024B1B681B6B74
:100AE800019308BDD001040808B5024B1B685B6878
:100AF800019308BD9C01040808B5024B1B685B699B
:100B0800019308BD9C01040808B5024B1B68DB690A
:100B1800019308BD9C01040808B5024B1B689B6D36
:100B2800019308BD9C01040808B5024B1B68DB6DE6
:100B3800019308BD9C01040808B5024B1B681B689B
:100B4800019308BDB001040808B5024B1B685B6837
:100B5800019308BDB001040808B5024B1B689B68E7
:100B6800019308BDB001040808B5024B1B68DB6897
:100B7800019308BDB001040808B5024B1B681B6946
:100B8800019308BDB001040808B5024B1B685B69F6
:100B9800019308BDB001040808B5024B1B689B69A6
:100BA800019308BDB001040808B5024B1B68DB6956
:100BB800019308BDB001040808B5024B1B681B6B04
:100BC800019308BDB001040808B5024B1B68DB6837
:100BD800019308BDAC01040808B5024B1B685B69AA
:100BE800019308BDAC01040808B5024B1B689B695A
:100BF800019308BDAC01040808B5024B1B68DB690A
:100C0800019308BDAC01040808B5024B1B681B6AB8
:100C1800019308BDAC01040808B5024B1B685B6A68
:100C2800019308BDAC01040808B5024B1B689B6A18
:100C3800019308BDAC01040808B5024B1B68DB6AC8
:100C4800019308BDAC01040808B5024B1B681B6B77
:100C5800019308BDAC01040808B5024B1B685B6B27
:100C6800019308BDAC01040808B5024B1B681B6C56
:100C7800019308BDAC01040808B5024B1B689B6CC6
:100C8800019308BDAC01040808B5024B1B68DB6C76
:100C9800019308BDAC01040808B5024B1B68DB6969
:100CA800019308BDB401040808B5024B1B681B6A10
:100CB800019308BDB401040808B5024B1B689B6981
:100CC800019308BDC401040808B5024B1B685B6AA0
:100CD800019308BDC401040808B5024B1B689B6A50
:100CE800019308BDC401040808B5024B1B68DB6A00
:100CF800019308BDC401040808B5024B1B681B6BAF
:100D0800019308BDC401040808B5024B1B685B6B5E
:100D1800019308BDC401040808B5024B1B689B6B0E
:100D2800019308BDC401040808B5024B1B681B6C7D
:100D3800019308BDC401040808B5024B1B681B6871
:100D4800019308BD1C00060808B5024B1B681B6907
:100D5800019308BD1C00060808B5024B1B685B69B7
:100D6800019308BD1C00060808B5024B1B689B6967
:100D7800019308BD1C00060808B5024B1B68DB6917
:100D8800019308BD1C00060808B5024B1B681B6AC6
:100D9800019308BD1C00060808B5024B1B681B68B8
:100DA800019308BDA401040808B5024B1B685B68E1
:100DB800019308BDA401040808B5024B1B685B69D0
:100DC800019308BDA401040808B5024B1B68DB6A3F
:100DD800019308BDA401040808B5024B1B68DB6C2D
:100DE800019308BDA401040808B5024B1B685B6D9C
:100DF800019308BDA401040808B5024B1B689B6D4C
:100E0800019308BDA401040808B5034B1B68D3F877
:100E18009030019308BD0000A401040808B5034BF5
:100E28001B68D3F89C30019308BD0000A401040896
:100E380008B5024B1B681B68019308BDCC01040868
:100E480008B5024B1B685B68019308BDCC01040818
:100E580008B5024B1B689B68019308BDCC010408C8
:100E680008B5024B1B68DB68019308BDCC01040878
:100E780008B5024B1B685B69019308BDCC010408E7
:100E880008B5024B1B681B6A019308BDCC01040816
:100E980008B5024B1B681B6B019308BDCC01040805
:100EA80008B5024B1B68DB6B019308BDCC01040835
:100EB80008B5024B1B685B68019308BDC8010408AC
:100EC80008B5024B1B689B68019308BDC80104085C
:100ED80008B5024B1B68DB68019308BDC80104080C
:100EE80008B5024B1B681B69019308BDC8010408BB
:100EF80008B5024B1B685B69019308BDC80104086B
:100F080008B5024B1B689B69019308BDC80104081A
:100F180008B5024B1B68DB69019308BDC8010408CA
:100F280008B5024B1B681B6A019308BDC801040879
:100F380008B5024B1B681B6B019308BDC801040868
:100F480008B5024B1B685B6B019308BDC801040818
:100F580008B5024B1B681B68019308BDA001040873
:100F680008B5024B1B685B68019308BDA001040823
:100F780008B5024B1B689B68019308BDA0010408D3
:100F880008B5024B1B68DB69019308BDA001040882
:100F980008B5024B1B68DB6A019308BDA001040871
:100FA80008B5024B1B681B6B019308BDA001040820
:100FB8000021FFF701BF10B5836804460BB901F0A3
:100FC80064F9C3689847A3681BB1032221462046E9
:100FD80098472046BDE81040FFF75DB8002211464B
:100FE8004068FFF77DBF2DE9FF41002604AC0546A8
:100FF80010468846174644F8046D02F0C6F9009674
:1010080081B2D8F8043022463846FFF75DFD20B19A
:101018003146284600F072FC03E02146284600F0DD
:1010280065FC284604B0BDE8F081002211464068FE
:10103800FFF776BF002211464068FFF781BF002204
:101048004068FFF775BF002281F001014068FFF793
:101058005FBF00231A4619464068FFF751BF0023B7
:101068001A4619464068FFF743BF002211464068F8
:10107800FFF726BF002202214068FFF729BF00239F
:101088001A464068FFF714BF38B50C4C28252A4685
:101098000021204602F023F94FF0FF3363602580DA
:1010A800074C042320466360064B2C2540F8083B78
:1010B8002A46002102F013F9258138BDD804002002
:1010C800A40400207436080870470020704710B543
:1010D8000446FEF7E0FF204610BD08B508B1FFF74B
:1010E800F6FF08BD10B58368044613B10322014614
:1010F8009847204610BD38B5C468D4B12378022B70
:1011080002D1E068FFF72CFF65682DB12846FFF78C
:10111800E9FF2846FEF7BFFFA5682DB12846FFF76F
:10112800E1FF2846FEF7B7FF2046BDE83840FEF746
:10113800B2BF38BD10B588B00446684600F04EFD11
:10114800694604A800F06CFD04A8A047044604A85A
:1011580000F0FDFC684600F0FAFC204608B010BD1F
:10116800F0B507460E46154685B0102422460021E4
:10117800684602F0B4F8002269461046ADF800400F
:10118800029703960195FFF75BFE05B0F0BD13B516
:10119800044691E8050000234B600B602060626004
:1011A80001A801930093FFF71BF9204602B010BD78
:1011B8000B68036013B15A6801325A607047F7B57B
:1011C8000C4606460F4654F8043B02AD45F8083D68
:1011D800214601A8FFF7ECFF29463046FFF7D7FF65
:1011E80001A8FFF7FDF82046FFF7FAF83846FEF7A2
:1011F80052FF304603B0F0BD13B50B46044603C892
:101208008DE8030093E8030084E803009DE80300E9
:1012180083E8030002B010BD826810B50AB901F076
:1012280034F8C368BDE81040184708B5006800F1F5
:101238001001FFF7F1FF08BD826810B50AB901F087
:1012480024F8C368BDE81040184708B5006800F1E5
:101258001001FFF7F1FF08BD38B5002383608B68E4
:1012680004460D462BB102229847EB68E360AB6851
:10127800A360204638BD00002DE9F0414FF69C736D
:1012880004684FF0020086B0B1F904208B80002377
:101298000F688DF800300B60D4E84F1F994203D1D6
:1012A800C4E8450F002DF7D102D08DF800106BE08F
:1012B80014F10C051CBFE7602282BFF35F8F18BFD3
:1012C8001F4601236370BFF35F8F04F108030020FA
:1012D80053E8006F43E80002002AF9D1BFF35F8F9B
:1012E800002E51D0FFF778FD20B129463046FFF790
:1012F80093FF43E031466846FFF7AEFFE068B4F974
:10130800105008B102F026F804901020ADF81450DF
:10131800FEF7BFFE054630B34FF00008C0F808805E
:101328001820FEF7B6FE0446C0B1C0F80880014692
:101338006846FFF761FF029BA268A360039B0292C5
:10134800E268E360BDF814300392A3824FF69C7301
:10135800ADF81430049BCDF8108023610D4B2C6040
:10136800EB600D4BAB600498FFF7FAFD6846FFF79A
:10137800B9FE002229460948FFF736FD3046FFF737
:10138800B1FE3046FEF787FE3846FFF7E9FD06B0A6
:10139800BDE8F0813312080891140808BF0F080847
:1013A8002DE9F04F8BB007AD4FF0000B064699467C
:1013B80014200C230F4690469DF850A0C5F804B0A1
:1013C800C5F808B00793FEF764FE044638B180F804
:1013D80000B080F801B0C0F804B0C0F808B000232D
:1013E800102003940493FEF754FE28B101234360B0
:1013F8008360234BC4600360224B04900820089349
:10140800FEF747FE044628B1039B04A940F8043BB5
:10141800FFF7CEFE00955FFA8AF34A464146384602
:101428000994FFF72DFDB8B9039B5B7803F0FF0221
:1014380093B94FF69C7305A903A80592ADF8183027
:10144800FFF71AFF0598FFF78BFD05A80999FFF725
:10145800B6FE06A8FEF7C4FF039B04A906A80593D9
:10146800FFF7A6FE05A93046FFF791FE06A8FEF78E
:10147800B7FF04A8FEF7B4FF30460BB0BDE8F08F05
:10148800A8360808F9150808022AF8B5044606D04F
:10149800032A17D0012A20D10B6803601DE0182009
:1014A8000E68FEF7F6FD054650B13146FFF7D4FE4B
:1014B8003069B6F9147008B101F04CFF2861AF82A9
:1014C80025600AE0046844B12069FFF749FD204619
:1014D800FFF708FE2046FEF7DEFD0020F8BD38B510
:1014E800002383608B6804460D462BB1022298477F
:1014F800EB68E360AB68A360204638BD022A70B58C
:10150800044606D0032A11D0012A17D10B680360BC
:1015180014E014200E68FEF7BCFD054620B13146E4
:10152800FFF7DDFF337C2B74256007E004682CB1DE
:101538002046FFF7D7FD2046FEF7ADFD002070BD21
:10154800F0B50C46BFF35F8F87B0002350E8006FFB
:1015580040E80032002AF9D1BFF35F8F002E3ED059
:101568001846FFF739FC074620B121463046FFF7F9
:1015780063FE2EE0314601A8FFF7B1FF2378102063
:101588008DF81430FEF785FD0546D0B1876014202C
:10159800FEF77FFD044678B18760014601A8FFF792
:1015A8002BFE039BA268A360049B0392E268E3609E
:1015B8009DF81430049223740A4B2C60EB600A4B9C
:1015C800AB6001A8FFF78EFD002229460748FFF708
:1015D8000BFC3046FFF786FD3046FEF75CFD07B092
:1015E800F0BD00BF5312080805150808BF0F08080A
:1015F80030B5044685B00D4668461146FFF7DFFD55
:101608007CB124B228460DB101F0A4FE029002A9D3
:101618006846ADF80C40FFF72FFE0298FFF7A0FCD4
:101628001DE04FF0010200988DF80840D0E84F3FC8
:10163800A34203D1C0E8412F0029F7D102D08DF889
:1016480008300CE010F10C014FF0010318BF0373D0
:10165800BFF35F8F043000F8033CFFF771FF01A868
:10166800FEF7BEFE05B030BD006800F0D9B810B571
:101678000446016002710AB1FFF7F6FF204610BD6B
:1016880038B504460D4600F095FD2A460146204629
:10169800FFF7EDFF204638BD006800F0CAB810B566
:1016A800037904460BB1FFF7F7FF204610BDF8B5E4
:1016B80004460F4616461D46FFF7D6FF206836211A
:1016C80000F0A0F82068394603689B689847012114
:1016D800206800F09AF8022236210123206800F0E1
:1016E80088F8206803685B69984730702068036849
:1016F8005B69984728702046BDE8F840FFF7CCBFE3
:1017080013B5002202AB03F8012D8DF80620042141
:101718000DF10602FFF7CBFF9DF8070001F052F824
:101728000022084B01F0B4F801F0ECFA04469DF8E9
:10173800060001F0F1FB0146204601F039FB02B03A
:1017480010BD00BF0000703F7047F8B5064615464B
:101758000C468F18BC4206D0336814F8011B9B68EE
:1017680030469847F6E72846F8BD0022007CFFF788
:101778004BBA0021007CFFF74FBA0021007CFFF72D
:1017880053BA0021007CFFF757BA0021007CFFF70D
:101798005BBA10B50446FEF77EFC204610BD00007B
:1017A80010B5044608464FF47A73A360044B002131
:1017B800207461602360FFF757FA204610BD00BF10
:1017C800C436080800231A461946007CFFF7FCB9FE
:1017D80013B50024007C0094FFF7FEF9C0B202B0F4
:1017E80010BD0123FFF7F4BF0123D2B2C9B2FFF73E
:1017F800EFBFDBB2D2B2C9B2FFF7EABF0022007C6A
:10180800FFF7F2B9C9B2FFF7F9BF0022007CFFF772
:10181800F3B90121FFF7F9BF0021007CFFF71CBADB
:1018280008B50021007CFFF727FAB0FA80F04009DC
:1018380008BD08B50021007CFFF726FAB0FA80F051
:10184800400908BD0047000007282DE9FF4105466B
:101858000F4690461E464FF0000419D0FFF7A4F932
:10186800A6424FF0040303948DF80C30A2BF9DF8F4
:10187800283003AC8DF80E302846009443463A468B
:101888000549A8BF8DF80D60FFF786F9012000E033
:10189800204604B0BDE8F0814D180808704710B51F
:1018A8000446FEF7F8FB204610BDF8B50F4600F1D8
:1018B8000806051D002416F8011D0A22384600F006
:1018C80010F9AE42044407D0002CF4D02E2138463B
:1018D80000F0C4F80444EEE72046F8BD024A02606E
:1018E80000224260704700BFEC360808024A0260D6
:1018F8000A684260704700BFEC360808014A416038
:1019080002607047EC36080810B59DF8084044EAB4
:10191800032343EA024242EA0161416010BD00002C
:1019280037B5044D05609DF818500095FFF7ECFF9A
:1019380003B030BDEC360808014A024B1A60704704
:10194800AE3708080005002000231A464068FFF754
:10195800AFBA002202214068FFF7BABA0022114646
:101968004068FFF7ADBA002211464068FFF7B8BAE1
:1019780000231A4619464068FFF7BABA00231A46E8
:1019880019464068FFF7BCBA002281F0010140689F
:10199800FFF7BEBA00224068FFF7CABA0022114614
:1019A8004068FFF7CDBA002211464068FFF7B8BA81
:1019B800F0B5174687B0054604A8FFF78FFF002645
:1019C80006AC384644F80C6D01F0DFFC0A4B009673
:1019D80081B25B6822463846FFF776F820B1314677
:1019E8002846FFF78BFF03E021462846FFF77EFFD6
:1019F800284607B0F0BD00BFA4040020024B034AEC
:101A08001A6000225A60704704050020E037080871
:101A1800F8B506460D468F180024BD420CD0336831
:101A280015F8011B9B6830469847002801DB0444E1
:101A3800F3E7002C08BF04462046F8BD70B50546FC
:101A48000C46084649B101F0A0FC2B680246214625
:101A58002846BDE87040DB68184770BD03689B687E
:101A6800184738B50D210546FFF7F8FF0A21044647
:101A78002846FFF7F3FF204438BD38B50546FFF781
:101A8800DDFF04462846FFF7ECFF204438BD012A55
:101A980098BF0A2230B50B468BB000218DF8241070
:101AA8000DF12304B3FBF2F505FB1233DBB2092B6E
:101AB80094BF30333733DBB2214604F801392B4663
:101AC800002DEFD1FFF7BAFF0BB030BD10B422B92B
:101AD8000368C9B29B6810BC1847D2B210BCFFF7A4
:101AE800D6BFFFF7F3BF10B50446FFF7FBFA204651
:101AF80010BD0000034800238360034A034900F037
:101B0800BFBB00BF0C0500206C040020EF1A0808BA
:101B1800704710B50446FEF7BEFA204610BD000017
:101B280070B504460E46074B0025036040F80C5F6D
:101B3800FEF7D2FF30462671FFF7AEF8A5602046C3
:101B480070BD00BF143808080079FFF7ADB810B5AC
:101B580004460068FFF704FA204610BD10B5044695
:101B6800006808B1FFF7FCF900232360A3606360F5
:101B780010BD38B504460D4600680131FFF7F8F985
:101B880010B184E82100012038BD10B5036804466F
:101B980013B143688B4207D22046FFF7EAFF20B112
:101BA800A3680BB922681370012010BD70B50E46EA
:101BB800114604461546FFF7E8FF18B92046FFF717
:101BC800CDFF09E02A463146A560206801F07CFB7C
:101BD8002268A3680021D154204670BD38B500237F
:101BE800044603604360836003730D4639B10846B9
:101BF80001F0CBFB294602462046FFF7D7FF2046D7
:101C080038BD884210B50B46044607D0096819B19B
:101C18009A68FFF7CBFF01E0FFF7A0FF204610BD51
:101C280010B5044600230360436083600373FFF725
:101C3800E8FF204610BD08B582680B4612B919B9ED
:101C4800012008BD11B90368187802E0006801F0A6
:101C580077FBB0FA80F0400908BD00004FF6FF722C
:101C6800034B0020187058809A80FFF79DB800BF7A
:101C78001C05002008B50020FFF70AF928B1FFF776
:101C8800F7F880F00100C0B208BD012008BD10B50A
:101C98000020FEF741FF044668B9FFF77DF80128E8
:101CA8000BD12046FFF7A8F838B9FFF7E3FF30B9A2
:101CB800FFF7CEF8F9E7012010BD002010BDFFF7AF
:101CC800D9FF0020FEF728FF003018BF012010BD03
:101CD80008B5FFF7DCFFBDE80840FEF715BF0000B8
:101CE800024B1A68024B1A60704700BF04040020B8
:101CF80024050020704741747047007CFFF714B832
:101D0800007CFEF7E9BF007CFEF7F6BF007CFEF71B
:101D1800EBBF007CFEF7F8BF10B50446FEF7BBF931
:101D2800204610BD70B5457C04460E4625B9007C9A
:101D3800FEF7FAFF002805DD3146207CBDE870403B
:101D4800FEF7C2BF284670BD10B5044608461146C6
:101D5800002262604FF47A72A260054A2074226001
:101D6800012262741A46FEF7A7FF204610BD00BF85
:101D780050380808007CFEF7CFBF000038B50C4D7E
:101D8800296811F0010411D12846FEF786F968B1D7
:101D9800084A2146084B0948FFF7D6FF2846FEF7B0
:101DA80081F9074A0749054800F06AFA034838BD2F
:101DB800C0050020C40500203C050020280500209F
:101DC8006C040020FD1C080841747047704700210E
:101DD800007CFEF7C9BF0121007CFEF7C5BF007C6F
:101DE800FEF7BABF007CFEF7AFBF38B50446007CEB
:101DF8000D46FEF7B1FF002801DC607C20B12946C2
:101E0800207CFEF7B9FF012038BD007CFEF7BCBF7F
:101E180010B50446FEF73FF9204610BD10B504463C
:101E2800002363604FF47A73A360054B0846236070
:101E38000123217463741146FEF77EFF204610BD0E
:101E48008038080810B504461422002101F047FA2A
:101E5800054B20466360054BE36040F20113238184
:101E68008123238210BD00BFCD0600204C06002030
:101E780030B50E4D87B001A8FFF7E4FF296811F0CF
:101E8800010410D12846FEF708F960B101AA2146DD
:101E98000748FFF7C3FF2846FEF704F9054A064935
:101EA800034800F0EDF9024807B030BD48060020AD
:101EB800D00700206C040020D51D080810B5044682
:101EC8001422002101F00BFA054B20466360054BF4
:101ED800E36040F2011323818123238210BD00BFF8
:101EE80080080020E807002010B50E4C86B001A835
:101EF800FFF7E4FF2368DB0710D42046FEF7CDF890
:101F080060B101AA01210848FFF788FF2046FEF7C3
:101F1800C9F8064A0649044800F0B2F9024806B072
:101F280010BD00BFE40700206C0800206C040020EE
:101F3800D51D080808B5184B33B1FFF799FF03689A
:101F48001B69984700281EDC144B33B1FFF716FFB6
:101F580003681B699847002818DC114B0BB1AFF3D5
:101F68000080104B0BB1AFF300800F4B0BB1AFF3F8
:101F780000800E4B7BB1FFF7B7FF03681B699847DA
:101F8800002806DC08BDAFF30080DDE7AFF3008072
:101F9800E3E7AFF3008008BD000000000000000088
:101FA8000000000000000000000000000000000029
:101FB80008B5FFF7BFFFFEF79FFD014B186008BD8E
:101FC8008C0900200248034A0349121A01F07CB91F
:101FD80000400240044002405039080807B5002379
:101FE80000931A466FF07701FEF718FF03B05DF80B
:101FF80004FB000007B543880A2B08D0502B09D1F1
:10200800094B1B683BB103B05DF804EB1847FFF7B9
:10201800E5FF06E0002300931A466FF07701FEF70C
:10202800FDFE03B05DF804FB8409002038B5104CB0
:10203800104D2368AB42104B0CBF012200221A70CE
:1020480002D0FFF7BFFF2560FEF74EFD044601F002
:102058004FF90A4B13B12046AFF30080002107481F
:10206800FEF71EFFBDE8384000210548FEF7CCBE4C
:10207800004002401E1C279A88090020000000002A
:10208800FD1F080810B504460F48FFF75DFD28B18D
:10209800A4F10D03022B01D8002010BD00F06AF84E
:1020A800FFF7BAFB08B1012CF6D9FFF767FEFFF777
:1020B80061FE18B1A4F11203012BEDD92E2C8CBFAF
:1020C8000020012010BD00BFC80900202E2838B507
:1020D80004460D460AD8FF2908D0FFF7D3FF28B1D8
:1020E80029462046BDE83840FEF736BD38BD38B52C
:1020F80004460D46FEF738FDFF2810D0062804D800
:102108004D2323FA00F0C30709D42046FFF7BAFF8E
:1021180028B129462046BDE83840FEF72DBD38BD18
:1021280010B50446FEF720FD0438C0B2012808D9CE
:102138002046FFF7A7FF20B12046BDE81040FEF774
:1021480023BD002010BD10B5044609289CBF0A34E1
:10215800A4B22046FFF796FF50B103212046FEF7B0
:10216800F3FC032804D12046BDE81040FEF724BD47
:10217800002010BD38B50B4D296811F001040FD1AE
:102188002846FDF78AFF58B121460748FFF708FBA4
:102198002846FDF787FF054A0549034800F070F80F
:1021A800014838BD90090020A80900206C040020CF
:1021B8005117080810B50B4C2368DB070FD42046CD
:1021C800FDF76BFF58B102210748FFF7E9FA2046EF
:1021D800FDF768FF054A0649034800F051F8024830
:1021E80010BD00BFBC090020940900206C04002029
:1021F8005117080813B5084C00231A4619460093CE
:102208002046FFF78DFB2046044A054902B0BDE889
:10221800104000F035B800BFC00900206C04002051
:10222800A518080870B5114E114D124C0021304602
:10223800FFF776FC3046104E2A46214600F020F87B
:1022480001213046FFF76CFC30460C4E2A462146E9
:1022580000F016F802213046FFF762FC2A462146B4
:102268003046BDE8704000F00BB800BFC809002038
:102278006C040020191B0808D8090020E809002070
:102288000B460146184601F011B808B5FEF780FE66
:10229800244B1A68D0075CBF01221A60224B1A68C7
:1022A800D1075CBF01221A60204B1A68D2075CBFB5
:1022B80001221A601E4B1A68D0075CBF01221A60FF
:1022C8001C4B1A68D1075CBF01221A601A4B1A68A6
:1022D800D2075CBF01221A60184B1A68D0075CBF8E
:1022E80001221A60164B1A68D1075CBF01221A60D6
:1022F800144B1A68D2075CBF01221A60124B1A6885
:10230800D0075CBF01221A60104B1A68D1075CBF66
:1023180001221A600E4B1A68D2075CBF01221A60AC
:10232800704700BF240A0020200A00201C0A002051
:10233800180A0020140A0020100A00200C0A0020A5
:10234800080A0020040A0020000A0020FC090020D6
:10235800F8090020184B1A68D1075CBF01221A60DF
:10236800164B1A68D2075CBF01221A60144B1A6810
:10237800D0075CBF01221A60124B1A68D1075CBFF4
:1023880001221A60104B1A68D2075CBF01221A603A
:102398000E4B1A68D0075CBF01221A600C4B1A68F2
:1023A800D1075CBF01221A600A4B1A68D2075CBFCA
:1023B80001221A60704700BF440A0020400A00202A
:1023C8003C0A0020380A0020340A0020300A002085
:1023D8002C0A0020280A0020184B1A68D1075CBF75
:1023E80001221A60164B1A68D2075CBF01221A60D4
:1023F800144B1A68D0075CBF01221A60124B1A6886
:10240800D1075CBF01221A60104B1A68D2075CBF63
:1024180001221A600E4B1A68D0075CBF01221A60AD
:102428000C4B1A68D1075CBF01221A600A4B1A6864
:10243800D2075CBF01221A60704700BF640A0020FF
:10244800600A00205C0A0020580A0020540A002074
:10245800500A00204C0A0020480A0020244B1A6821
:10246800D0075CBF01221A60224B1A68D1075CBFF3
:1024780001221A60204B1A68D2075CBF01221A6039
:102488001E4B1A68D0075CBF01221A601C4B1A68E1
:10249800D1075CBF01221A601A4B1A68D2075CBFC9
:1024A80001221A60184B1A68D0075CBF01221A6013
:1024B800164B1A68D1075CBF01221A60144B1A68C0
:1024C800D2075CBF01221A60124B1A68D0075CBFA2
:1024D80001221A60104B1A68D1075CBF01221A60EA
:1024E8000E4B1A68D2075CBF01221A60704700BF02
:1024F800940A0020900A00208C0A0020880A0020F4
:10250800840A0020800A00207C0A0020780A002023
:10251800740A0020700A00206C0A0020680A002053
:1025280081F0004102E000BF83F0004330B54FEA7C
:1025380041044FEA430594EA050F08BF90EA020FE9
:102548001FBF54EA000C55EA020C7FEA645C7FEA7C
:10255800655C00F0E2804FEA5454D4EB5555B8BF9F
:102568006D420CDD2C4480EA020281EA030382EA10
:10257800000083EA010180EA020281EA0303362DA2
:1025880088BF30BD11F0004F4FEA01314FF4801C75
:102598004CEA113102D0404261EB410113F0004F87
:1025A8004FEA03334CEA133302D0524263EB43033E
:1025B80094EA050F00F0A780A4F10104D5F1200EDC
:1025C8000DDB02FA0EFC22FA05F2801841F1000137
:1025D80003FA0EF2801843FA05F359410EE0A5F10B
:1025E80020050EF1200E012A03FA0EFC28BF4CF03C
:1025F800020C43FA05F3C01851EBE37101F00045F2
:1026080007D54FF0000EDCF1000C7EEB00006EEBFE
:102618000101B1F5801F1BD3B1F5001F0CD3490888
:102628005FEA30004FEA3C0C04F101044FEA4452DF
:1026380012F5800F80F09A80BCF1004F08BF5FEA66
:10264800500C50F1000041EB045141EA050130BD46
:102658005FEA4C0C404141EB010111F4801FA4F1E9
:102668000104E9D191F0000F04BF01460020B1FA3E
:1026780081F308BF2033A3F10B03B3F120020CDA76
:102688000C3208DD02F1140CC2F10C0201FA0CF054
:1026980021FA02F10CE002F11402D8BFC2F1200CB9
:1026A80001FA02F120FA0CFCDCBF41EA0C0190406F
:1026B800E41AA2BF01EB0451294330BD6FEA0404B8
:1026C8001F3C1CDA0C340EDC04F11404C4F12002A3
:1026D80020FA04F001FA02F340EA030021FA04F3B5
:1026E80045EA030130BDC4F10C04C4F1200220FA0C
:1026F80002F001FA04F340EA0300294630BD21FA4A
:1027080004F0294630BD94F0000F83F4801306BF0F
:1027180081F480110134013D4EE77FEA645C18BF03
:102728007FEA655C29D094EA050F08BF90EA020F9A
:1027380005D054EA000C04BF1946104630BD91EA92
:10274800030F1EBF0021002030BD5FEA545C05D195
:102758004000494128BF41F0004130BD14F58004D4
:102768003CBF01F5801130BD01F0004545F0FE4148
:1027780041F470014FF0000030BD7FEA645C1ABF7D
:10278800194610467FEA655C1CBF0B46024650EAB4
:10279800013406BF52EA033591EA030F41F40021E0
:1027A80030BD00BF90F0000F04BF0021704730B566
:1027B8004FF4806404F132044FF000054FF000013B
:1027C80050E700BF90F0000F04BF0021704730B5FC
:1027D8004FF4806404F1320410F0004548BF4042D1
:1027E8004FF000013EE700BF42004FEAE2014FEA26
:1027F80031014FEA02701FBF12F07F4393F07F4F01
:1028080081F06051704792F0000F14BF93F07F4F32
:10281800704730B54FF4607401F0004521F0004175
:1028280020E700BF50EA010208BF704730B54FF0FB
:1028380000050AE050EA010208BF704730B511F000
:10284800004502D5404261EB41014FF4806404F138
:1028580032045FEA915C3FF4DCAE4FF003025FEABA
:10286800DC0C18BF03325FEADC0C18BF033202EB42
:10287800DC02C2F1200300FA03FC20FA02F001FA9C
:1028880003FE40EA0E0021FA02F11444C1E600BF3B
:1028980070B54FF0FF0C4CF4E06C1CEA11541DBFEE
:1028A8001CEA135594EA0C0F95EA0C0F00F0DEF8B9
:1028B8002C4481EA030621EA4C5123EA4C5350EA9E
:1028C800013518BF52EA033541F4801143F48013EF
:1028D80038D0A0FB02CE4FF00005E1FB02E506F080
:1028E8000042E0FB03E54FF00006E1FB03569CF0D5
:1028F800000F18BF4EF0010EA4F1FF04B6F5007FDB
:1029080064F5407404D25FEA4E0E6D4146EB06064C
:1029180042EAC62141EA55514FEAC52040EA5E50D5
:102928004FEACE2EB4F1FD0C88BFBCF5E06F1ED87F
:10293800BEF1004F08BF5FEA500E50F1000041EBB6
:10294800045170BD06F0004646EA010140EA020063
:1029580081EA0301B4EB5C04C2BFD4EB0C0541EA85
:10296800045170BD41F480114FF0000E013C00F39A
:10297800AB8014F1360FDEBF002001F0004170BDBE
:10298800C4F10004203C35DA0C341BDC04F11404D7
:10299800C4F1200500FA05F320FA04F001FA05F263
:1029A80040EA020001F0004221F0004110EBD37030
:1029B80021FA04F642EB06015EEA430E08BF20EA5C
:1029C800D37070BDC4F10C04C4F1200500FA04F3FF
:1029D80020FA05F001FA04F240EA020001F0004191
:1029E80010EBD37041F100015EEA430E08BF20EA04
:1029F800D37070BDC4F1200500FA05F24EEA020E4C
:102A080020FA04F301FA05F243EA020321FA04F07A
:102A180001F0004121FA04F220EA020000EBD37031
:102A28005EEA430E08BF20EAD37070BD94F0000F31
:102A38000FD101F00046400041EB010111F4801F65
:102A480008BF013CF7D041EA060195F0000F18BF16
:102A5800704703F00046520043EB030313F4801F52
:102A680008BF013DF7D043EA0603704794EA0C0F0C
:102A78000CEA135518BF95EA0C0F0CD050EA410622
:102A880018BF52EA4306D1D181EA030101F000419F
:102A98004FF0000070BD50EA410606BF10461946C7
:102AA80052EA430619D094EA0C0F02D150EA0136D3
:102AB80013D195EA0C0F05D152EA03361CBF104614
:102AC80019460AD181EA030101F0004141F0FE41B3
:102AD80041F470014FF0000070BD41F0FE4141F437
:102AE800780170BD70B54FF0FF0C4CF4E06C1CEA37
:102AF80011541DBF1CEA135594EA0C0F95EA0C0FEC
:102B080000F0A7F8A4EB050481EA030E52EA0335A6
:102B18004FEA013100F088804FEA03334FF08055C7
:102B280045EA131343EA12634FEA022245EA1115F4
:102B380045EA10654FEA00260EF000419D4208BFA5
:102B4800964244F1FD0404F5407402D25B084FEA52
:102B58003202B61A65EB03055B084FEA32024FF4FE
:102B680080104FF4002CB6EB020E75EB030E22BF5B
:102B7800B61A754640EA0C005B084FEA3202B6EB1B
:102B8800020E75EB030E22BFB61A754640EA5C00CA
:102B98005B084FEA3202B6EB020E75EB030E22BF5A
:102BA800B61A754640EA9C005B084FEA3202B6EB5B
:102BB800020E75EB030E22BFB61A754640EADC001A
:102BC80055EA060E18D04FEA051545EA16754FEA7C
:102BD80006164FEAC30343EA52734FEAC2025FEA9A
:102BE8001C1CC0D111F4801F0BD141EA00014FF029
:102BF80000004FF0004CB6E711F4801F04BF0143FA
:102C08000020B4F1FD0C88BFBCF5E06F3FF6AFAE15
:102C1800B5EB030C04BFB6EB020C5FEA500C50F1A5
:102C2800000041EB045170BD0EF0004E4EEA113128
:102C380014EB5C04C2BFD4EB0C0541EA045170BD2F
:102C480041F480114FF0000E013C90E645EA060E73
:102C58008DE60CEA135594EA0C0F08BF95EA0C0FA1
:102C68003FF43BAF94EA0C0F0AD150EA01347FF4E9
:102C780034AF95EA0C0F7FF425AF104619462CE7C0
:102C880095EA0C0F06D152EA03353FF4FDAE104623
:102C9800194622E750EA410618BF52EA43067FF474
:102CA800C5AE50EA41047FF40DAF52EA43057FF404
:102CB800EBAE12E74FEA410212F5001215D211D518
:102CC8006FF47873B3EB625212D94FEAC12343F021
:102CD800004343EA505311F0004F23FA02F018BFA3
:102CE800404270474FF00000704750EA013005D16C
:102CF80011F0004008BF6FF0004070474FF000002F
:102D0800704700BF4FEA4102B2F1E04324BFB3F578
:102D1800001CDCF1FE5C0DD901F0004C4FEAC0024A
:102D28004CEA5070B2F1004F40EB830008BF20F02E
:102D38000100704711F0804F21D113F13872BCBFE8
:102D480001F00040704741F480114FEA5252C2F13D
:102D58001802C2F1200C10FA0CF320FA02F018BF86
:102D680040F001004FEAC1234FEAD32303FA0CFCD9
:102D780040EA0C0023FA02F34FEA4303CCE77FEA68
:102D8800625307D150EA01331EBF4FF0FE4040F4B2
:102D98004000704701F0004040F0FE4040F4000061
:102DA800704700BF80F0004002E000BF81F00041A2
:102DB80042001FBF5FEA410392EA030F7FEA226CD9
:102DC8007FEA236C6AD04FEA1262D2EB1363C1BF69
:102DD800D218414048404140B8BF5B42192B88BFD8
:102DE800704710F0004F40F4000020F07F4018BFFB
:102DF800404211F0004F41F4000121F07F4118BF1B
:102E0800494292EA030F3FD0A2F1010241FA03FCC2
:102E180010EB0C00C3F1200301FA03F100F00043AA
:102E280002D5494260EB4000B0F5000F13D3B0F172
:102E3800807F06D340084FEA310102F10102FE2AE1
:102E480051D2B1F1004F40EBC25008BF20F0010051
:102E580040EA03007047490040EB000010F4000FFF
:102E6800A2F10102EDD1B0FA80FCACF1080CB2EB92
:102E78000C0200FA0CF0AABF00EBC25052421843F1
:102E8800BCBFD0401843704792F0000F81F4000196
:102E980006BF80F400000132013BB5E74FEA410369
:102EA8007FEA226C18BF7FEA236C21D092EA030FD5
:102EB80004D092F0000F08BF0846704790EA010F4F
:102EC8001CBF0020704712F07F4F04D1400028BF7C
:102ED80040F00040704712F100723CBF00F500005E
:102EE800704700F0004343F0FE4040F40000704794
:102EF8007FEA226216BF08467FEA23630146420240
:102F080006BF5FEA412390EA010F40F48000704752
:102F18004FF0000304E000BF10F0004348BF4042F8
:102F28005FEA000C08BF704743F0964301464FF034
:102F380000001CE050EA010208BF70474FF0000390
:102F48000AE000BF50EA010208BF704711F00043D1
:102F580002D5404261EB41015FEA010C02BF8446A1
:102F68000146002043F0B64308BFA3F18053A3F500
:102F78000003BCFA8CF2083AA3EBC25310DB01FA47
:102F880002FC634400FA02FCC2F12002BCF1004FCB
:102F980020FA02F243EB020008BF20F0010070475C
:102FA80002F1200201FA02FCC2F1200250EA4C00B0
:102FB80021FA02F243EB020008BF20EADC707047F6
:102FC8004FF0FF0C1CEAD0521EBF1CEAD15392EA04
:102FD8000C0F93EA0C0F6FD01A4480EA010C4002E0
:102FE80018BF5FEA41211ED04FF0006343EA50103A
:102FF80043EA5111A0FB01310CF00040B1F5000F7C
:103008003EBF490041EAD3715B0040EA010062F12A
:103018007F02FD2A1DD8B3F1004F40EBC25008BF14
:1030280020F00100704790F0000F0CF0004C08BF32
:1030380049024CEA502040EA51207F3AC2BFD2F1FF
:10304800FF0340EAC250704740F400004FF000030D
:10305800013A5DDC12F1190FDCBF00F00040704747
:10306800C2F10002410021FA02F1C2F1200200FA85
:1030780002FC5FEA310040F1000053EA4C0308BF4C
:1030880020EADC70704792F0000F00F0004C02BF9D
:10309800400010F4000F013AF9D040EA0C0093F018
:1030A800000F01F0004C02BF490011F4000F013B72
:1030B800F9D041EA0C018FE70CEAD15392EA0C0FE0
:1030C80018BF93EA0C0F0AD030F0004C18BF31F04B
:1030D800004CD8D180EA010000F00040704790F021
:1030E800000F17BF90F0004F084691F0000F91F0C5
:1030F800004F14D092EA0C0F01D142020FD193EA8B
:103108000C0F03D14B0218BF084608D180EA010012
:1031180000F0004040F0FE4040F40000704740F0EE
:10312800FE4040F4400070474FF0FF0C1CEAD052BC
:103138001EBF1CEAD15392EA0C0F93EA0C0F69D018
:10314800A2EB030280EA010C49024FEA402037D083
:103158004FF0805343EA111143EA10130CF000407A
:103168008B4238BF5B0042F17D024FF4000C8B426A
:1031780024BF5B1A40EA0C00B3EB510F24BFA3EB4A
:10318800510340EA5C00B3EB910F24BFA3EB91031A
:1031980040EA9C00B3EBD10F24BFA3EBD10340EA74
:1031A800DC001B0118BF5FEA1C1CE0D1FD2A3FF6BA
:1031B80050AF8B4240EBC25008BF20F0010070476F
:1031C8000CF0004C4CEA50207F32C2BFD2F1FF0312
:1031D80040EAC250704740F400004FF00003013A43
:1031E80037E792F0000F00F0004C02BF400010F4E7
:1031F800000F013AF9D040EA0C0093F0000F01F0FB
:10320800004C02BF490011F4000F013BF9D041EA1C
:103218000C0195E70CEAD15392EA0C0F08D142024F
:103228007FF47DAF93EA0C0F7FF470AF084676E722
:1032380093EA0C0F04D14B023FF44CAF08466EE7FB
:1032480030F0004C18BF31F0004CCAD130F00042C9
:103258007FF45CAF31F000437FF43CAF5FE700BF21
:103268004FEA4002B2F1FE4F0FD34FF09E03B3EB8B
:1032780012620DD94FEA002343F0004310F0004FCB
:1032880023FA02F018BF404270474FF00000704721
:1032980012F1610F01D1420205D110F0004008BFC0
:1032A8006FF0004070474FF00000704710B5054CB4
:1032B80013462CB10A4601460220AFF3008010BD28
:1032C800204610BD0000000010B5431E0A4491427C
:1032D80004D011F8014B03F8014FF8E710BD03467D
:1032E8000244934202D003F8011BFAE7704700003A
:1032F80038B5124B05461C68A36BD3B91820FDF7E7
:1033080027FE43F20E33A06303804AF6CD33438091
:1033180041F2342383804EF26D63C3804DF6EC6333
:103328000381052343810B23838101220023C0E904
:103338000423A36B00221D615A6138BD6804002074
:1033480010F8012B11F8013B012A28BF9A42F7D047
:10335800D01A7047024B0146186800F003B800BF46
:103368006804002070B5064608460C4600F00DF8C3
:10337800451C29463046FDF713FE064618B12A4675
:103388002146FFF7A1FF304670BD034613F8012B15
:10339800002AFBD1181A0138704700001D000808E0
:1033A8005D000808890008088D0008080000000072
:1033B800302E32310000526573657474696E67206F
:1033C8004D656D6F72790032352520646F6E65002A
:1033D80035302520646F6E650037352520646F6EA3
:1033E8006500446F6E650052656C656173650073B6
:1033F800746174654F66436867004861726452651A
:103408007365740054657374204661696C65645211
:10341800657365742044657669636520746F20431D
:103428006F6E74696E756500426567696E6E696E68
:103438006720546573742052756E00546573742048
:103448005374617274004661696C6564202D204D67
:10345800697373696E67204652414D0054657374F1
:1034680020233100496E2070726F63657373202DBD
:103478002045726173696E67204652414D0046616E
:10348800696C6564202D204652414D205265616467
:10349800204572726F72004652414D205465737414
:1034A800205061737365640054656D706572617452
:1034B8007572652069732025694600546573742008
:1034C80023320050726573732055736572205377E9
:1034D80069746368005465737420233300557365F9
:1034E800722053776974636820507265737320443F
:1034F80065746563746564005374617274656420EF
:1035080074657374696E6720416363656C65726F77
:103518006D65746572202D20706C732077616974F5
:10352800005465737420233400416363656C6572CD
:103538006174696F6E204461746120697320583A20
:103548002025322E31662C20593A2025322E31661C
:103558002C205A3A2025322E316600426174746557
:10356800727920636861726765206C6576656C2086
:103578003D20256900546573742023350042617429
:103588007465727920636861726765207465737405
:10359800207061737365640054657374202336006A
:1035A80045787065637420746869732074657374F2
:1035B80020746F2074616B65207E3630206D696ED3
:1035C80075746573005465737420233720537461D0
:1035D8007274656400456C61707365642074696D0C
:1035E8006520696E206D696E757465732069732036
:1035F800256900546573742023372046696E697302
:103608006865640046696E616C2054657374202D8A
:10361800204861726420526573657420696E203198
:10362800207365636F6E64005465737420233700DC
:10363800496620796F752073656520746869732001
:103648006D657373616765202D20686172642072EF
:10365800657365742074657374206661696C65644C
:1036680000000000000000000000000087100808AB
:103678007D10080873100808E50F08086710080887
:103688005B1008084F100808471008083D10080884
:1036980033100808EF0F08080000000000000000C1
:1036A800D1100808D7100808FF100808E310080808
:1036B800D310080800000000000000005117080897
:1036C8009B17080873170808531708087B1708087A
:1036D800831708088B1708089317080800000000CC
:1036E80000000000B3180808A5180808A71808085B
:1036F8006C6E00666E00636F646500646574616972
:103708006C000D0A00253031307520005D20002541
:1037180064002C200028293A2000205B00636F6495
:1037280065203D200064657461696C73203D20004C
:10373800626175640053657269616C005553425348
:10374800657269616C3100747970650070617261CD
:103758006D00636D6400696400686E640073747260
:103768006D0066696C74006C766C00616464486115
:103778006E646C65720072656D6F766548616E6423
:103788006C657200656E756D48616E646C65727308
:10379800004A534F4E53747265616D4C6F674861B0
:1037A8006E646C657200617070006E6F6E65007497
:1037B8007261636500696E666F007761726E00659D
:1037C80072726F720070616E696300616C6C0000E8
:1037D8000000000000000000511908085B190808E3
:1037E800651908086F19080879190808851908085B
:1037F800911908089D190808A5190808AF1908089B
:10380800B91908080000000000000000191B08088A
:103818001B1B08085A00252B3033643A25303275B3
:103828000025592D256D2D25645425483A254D3AF6
:103838002553257A0061736374696D650000000083
:103848000000000000000000FD1C0808211D0808F9
:103858002D1D0808191A0808091D0808151D08084B
:103868000F1D08081B1D0808FF1C0808031D080871
:103878000000000000000000D51D0808191E0808F7
:10388800F31D0808191A0808ED1D0808D71D0808AF
:10389800DF1D0808131E0808E71D0808D11D0808C1
:1038A8000000000000000000000000000000000010
:1038B8000000000000000000000000000000000000
:1038C80000000000000000000000000000000000F0
:1038D80000000000000000000000000000000000E0
:1038E80000000000000000000000000000000000D0
:1038F80000000000000000000000000000000000C0
:103908004300000055010808F1070808CB0A080819
:103918009110080841190808051A0808FD1A08082E
:10392800651C0808E91C0808FD2108082D2208085C
:10393800992208085D230808E12308086524080877
:08394800000000000000000077
:043950000000000073
:1039540060EA00003D38080800000000A8380808A4
:10396400C8380808E8380808000000000000000013
:1039740000000000000000000839080800000000F2
:103984000000000000000000000000000000000033
:103994000000000000000000000000000000000023
:1039A4000000000000000000000000000000000013
:0C39B400000000000000000008040020DB
:1039C000FFFFFFFF00000102030405060708090AC4
:1039D0000B0C0D0E0F101112131415161718191ABF
:0839E0001B1C1D1E1F20280006
:0439E80078563412C7
:0400000508080018CF
:00000001FF
